:020000040800F2
:10000000D00C0020F1010008EF01000813130008D4
:10001000EF010008EF010008EF01000800000000F8
:10002000000000000000000000000000EF010008D8
:10003000EF01000800000000EF010008EF010008D8
:10004000EF010008EF010008EF010008EF010008D0
:10005000EF010008EF01000899090008EF0100080E
:10006000EF010008EF010008EF010008EF010008B0
:10007000EF010008EF010008EF010008EF010008A0
:10008000EF010008EF010008EF010008EF01000890
:10009000EF010008EF010008EF010008EF01000880
:1000A000EF010008EF010008EF010008EF01000870
:1000B000EF010008EF010008EF010008EF01000860
:1000C000EF010008EF010008EF010008EF01000850
:1000D000EF010008EF010008EF010008EF01000840
:1000E000310A0008EF010008EF010008EF010008E5
:1000F000EF010008EF010008EF010008EF01000820
:10010000EF010008EF010008EF010008EF0100080F
:10011000EF010008EF010008EF010008EF010008FF
:10012000EF010008EF010008EF010008EF010008EF
:10013000EF010008EF010008EF010008EF010008DF
:10014000EF010008EF010008EF010008EF010008CF
:10015000EF010008EF010008EF010008EF010008BF
:10016000EF010008EF010008EF010008EF010008AF
:10017000EF010008EF010008EF010008EF0100089F
:10018000EF010008EF01000810B50C4B19784A1C6C
:10019000D2B219449C1848700E2A4FF000011A7010
:1001A000617002D80A2800D038B9197004200449B7
:1001B0000022BDE8104001F0A3B810BD6404002087
:1001C0006504002001F0030301F0FC0101F180410E
:1001D00001F59C3110B59B008C680F229A4024EAEF
:1001E00002028A608A68984002438A6010BDFEE776
:1001F00008B50F4A0F4B10498B4204D252F8041F26
:1002000043F8041BF7E70D480D494FF00002884200
:10021000B8BF40F8042BFADBDFF82800016841F48E
:100220007001016001F080F8BDE8084000F084BC76
:10023000C825000800000020640400206404002099
:10024000CC04002088ED00E007B50820012100F073
:1002500057FE4FF20403009301238DF8043003236B
:100260008DF805300548002369468DF806308DF875
:10027000073000F0EDFF03B05DF804FB000C024016
:1002800007B50120014600F03BFE01230093002347
:100290008DF804308DF806300548022369468DF844
:1002A00007308DF8053000F0D3FF03B05DF804FB94
:1002B0000000024030B54FF4001087B0012100F07B
:1002C0002BFE1F4D0220012100F01AFE4FF4107387
:1002D000012400932846022369468DF804308DF8E6
:1002E00005308DF806408DF8074000F0B1FF284634
:1002F0000621042200F0F2FF28460921042200F022
:10030000EDFF4CF250330293A5F5D83500234BF6A0
:10031000FF72ADF80C30ADF81030ADF81230284651
:100320004FF4804302A9ADF80E20ADF8143001F06F
:1003300077F82846214601F0DDF807B030BD00BF50
:100340000004024070B504460E46154622B1204610
:10035000012101F0DBF807E020464FF4003101F005
:1003600015F90028F8D1F2E720460D4901F000F90F
:100370000028F9D0204631462A4601F0DFF835B989
:100380002046084901F0F4F80028F9D070BD012D8D
:1003900005D12046044901F0EBF80028F9D070BDE2
:1003A00001000300820007000200030010B50446AC
:1003B00001F0D9F82046034901F0DAF80028F9D015
:1003C00010BD00BF8400070010B50121044601F0F4
:1003D000BEF82046044901F0CBF80028F9D02046A9
:1003E000BDE8104001F0C1B84000030010B5002185
:1003F000044601F0ACF82046012101F093F82046B4
:10040000044901F0B5F80028F9D02046BDE81040B5
:1004100001F0ABB840000300012101F083B80000F7
:1004200038B5224C224D00222046D721FFF78AFF03
:1004300020462978FFF7BAFF20460021FFF7B6FFD4
:100440002046FFF7E9FF00222046D721FFF77AFF79
:1004500020462979FFF7AAFF20461021FFF7A6FFC3
:100460002046FFF7D9FF00222046D721FFF76AFF79
:100470002046297AFFF79AFF20466F21FFF796FF63
:100480002046FFF7C9FF20460022D721FFF75AFF79
:1004900020462521FFF78AFF20460021FFF786FF2F
:1004A0002046BDE83840FFF7B7BF00BF005400400A
:1004B0000000002010B5294C002220463B21FFF708
:1004C00041FF20462021FFF771FF20465721FFF70B
:1004D0006DFF2046FFF7A0FF002220463B21FFF7DB
:1004E00031FF20462121FFF761FF20460821FFF759
:1004F0005DFF2046FFF790FF002220463B21FFF7DB
:1005000021FF20462421FFF751FF20466421FFF7F9
:100510004DFF2046FFF780FF002220463B21FFF7DA
:1005200011FF20462521FFF741FF20462021FFF73C
:100530003DFF2046FFF770FF204600223B21FFF7DA
:1005400001FF20462621FFF731FF20460021FFF75B
:100550002DFF2046BDE81040FFF75EBF005400406D
:1005600010B5094C00222046BB21FFF7EBFE2046C8
:100570002021FFF71BFF2046B021FFF717FF204681
:10058000BDE81040FFF748BF005400402DE9F84394
:1005900000223648D721FFF7D5FE3448A821FFF7BF
:1005A00005FFD62101223148FFF7CCFE2F48FFF787
:1005B0000BFF81462D48FFF707FF49EA00201FFA8D
:1005C00080F92A48FFF700FF80462848FFF7FCFE25
:1005D00048EA00201FFA80F82448FFF7F5FE074696
:1005E0002248FFF703FF47EA002087B21F48FFF7C2
:1005F00013FF1FFA89F619F4004F18BFA6F58036CD
:1006000007EE906A1FFA88F518F4004F18BFA5F599
:100610008035F8EEE77A3B04154B9FED167AC3ED73
:10062000007AD3ED007AC7EE877ABCB248BFA4F552
:100630008034C3ED007A07EE905AF8EEE77AC3ED06
:10064000017AD3ED017AC7EE877AC3ED017A07EE1E
:10065000904AF8EEE77AC3ED027AD3ED027AC7EE5C
:10066000877AC3ED027ABDE8F88300BF00540040EA
:10067000B0040020000083422DE9F84300223648F0
:100680003B21FFF75FFE3448A821FFF78FFE3A2198
:1006900001223148FFF756FE2F48FFF795FE8146AD
:1006A0002D48FFF791FE49EA00201FFA80F92A48F9
:1006B000FFF78AFE80462848FFF786FE48EA0020BA
:1006C0001FFA80F82448FFF77FFE07462248FFF70D
:1006D0008DFE47EA002087B21F48FFF79DFE1FFAF4
:1006E00089F619F4004F18BFA6F5803607EE906A18
:1006F0001FFA88F518F4004F18BFA5F58035F8EEFD
:10070000E77A3B04154B9FED167AC3ED007AD3EDE3
:10071000007A67EE877ABCB2C3ED007A07EE905A92
:10072000F8EEE77A48BFA4F58034C3ED017AD3ED43
:10073000017A67EE877AC3ED017A07EE904AF8EE08
:10074000E77AC3ED027AD3ED027A67EE877AC3EDDA
:10075000027ABDE8F88300BF00540040BC040020CA
:10076000000000392DE9F341DFF8848002200121E7
:1007700000F0D2FB0620012100F0C2FB0224C023BE
:100780000326002701254046694600938DF8056041
:100790008DF804408DF806708DF8075000F058FD74
:1007A00000968DF80560114E8DF80440304669467C
:1007B0008DF806708DF8075000F04AFD404622463D
:1007C000062100F08BFD40462246072100F086FD01
:1007D00030463946224600F081FD30462946224601
:1007E00000F07CFD02B0BDE8F08100BF00040240D3
:1007F0000008024070B5284B284C294A1B68B3FBFF
:10080000F2F388B00025013B01906946204601269D
:10081000ADF80030ADF80850ADF8025000F056FFCA
:100820006023204603A9ADF80C30ADF80E600595A5
:10083000ADF8185000F0ACFF2046082101F09AF8FE
:10084000204603A9ADF80E60059500F0D9FF2046BB
:10085000082101F097F8204603A9ADF80E60059530
:1008600001F012F82046082101F096F8204603A96D
:10087000ADF80E60059501F049F82046082101F019
:1008800093F82046314600F06AFF2046314600F0DA
:1008900072FF08B070BD00BF50040020000400408B
:1008A000C0D4010070B5082086B0012100F028FBFB
:1008B0004FF48040012100F03BFB0024012503267A
:1008C00002A915488DF80C408DF80E4002958DF860
:1008D0000F508DF80D6000F0BBFC21463046FFF74D
:1008E00071FC10230DEB03008DF8153004958DF885
:1008F00016508DF8144000F063FE062301A88DF811
:1009000004308DF805408DF806408DF8075000F052
:10091000A7FE06B070BD00BF000C024070B50220FB
:1009200086B0012100F0ECFA4FF48040012100F084
:10093000FFFA0124002503234FF4805602A915482D
:100940008DF80D308DF80C508DF80E5002968DF804
:100950000F4000F07DFC0C212046FFF733FC1023F4
:100960000DEB03008DF8153004968DF816408DF8C8
:10097000145000F025FE282301A88DF804308DF8CE
:1009800005508DF806408DF8074000F069FE06B06E
:1009900070BD00BF0004024010B5012000F04CFE05
:1009A00000283CD01E4C2368F3B91E48012100F0FA
:1009B00087FC48B163683BB94FF0804000F0CDFE42
:1009C000194B18600123A3601648012100F078FC40
:1009D00050B9A36843B14FF0804000F0BEFE124B07
:1009E00058600F4B01225A60A2680D4B92B15A68B1
:1009F00082B100229A605A600B4B19685868421AFB
:100A00008842B8BF02F2E9329A601A89074B1A800D
:100A1000002323600120BDE8104000F01BBE10BD84
:100A200078040020000C024094040020C804002038
:100A300010B54FF4805000F0FFFD002845D0234C46
:100A4000E36803BB22484FF4805100F039FC48B101
:100A500023693BB94FF0804000F07FFE1D4B1860CA
:100A6000012363611A484FF4805100F029FC50B90A
:100A7000636943B14FF0804000F06FFE154B586042
:100A8000124B01221A616269104BC2B11A69B2B1EC
:100A90000122DA6000225A611A610E4B1968586807
:100AA000421A8842B8BF02F2E9329A6099680A4B4A
:100AB0000A488AB21A8000F0B5FB0023E3604FF4C5
:100AC0008050BDE8104000F0C5BD10BD7804002086
:100AD00000040240A4040020A004002070250008A7
:100AE0001FB50120014600F017FA01A800F02CFE06
:100AF0000E4B0F4A1B68B3FBF2F3013BADF8043019
:100B00004FF47A73029301A900234FF08040ADF8AF
:100B10000C30ADF8063000F0D9FD4FF080400121D7
:100B200000F029FE05B05DF804FB00BF5004002072
:100B3000A0860100000000002DE9F0412DED088B9A
:100B400082B000F0F1FBFFF77FFBFFF799FB4FF45A
:100B50008051B9489FEDB98A00F0B8FBFFF7AAFBB6
:100B6000FFF75EFCFFF7A6FCFFF7FAFCFFF7FAFDC4
:100B70006420FFF73FFEB24B32225A639A63DA6376
:100B80001A64FFF78FFEFFF7C9FEFFF7A9FFAA4817
:100B90004FF4004100F09AFBAA4800F051FBF0EE40
:100BA000488A0024F0EE489AA74EA84D33889BB29D
:100BB0005A2B0BD90123A048AB614FF4004100F040
:100BC00087FB9D484FF4804100F080FB33889BB247
:100BD0003B2B13D898489FED998A4FF4004100248D
:100BE000AC6100F073FB94484FF4804100F070FB5F
:100BF000934B32225A639A63DA631A649448012150
:100C000000F05EFBF8B164B901248B48AC614FF48D
:100C1000004100F05DFB88484FF4804100F056FB36
:100C200011E085484FF400410024AC6100F04EFB18
:100C300081484FF4804100F04BFB814B32225A63D4
:100C40009A63DA631A64FFF7A1FC7B484FF4005102
:100C500000F040FBFFF710FD7E4B93ED000A93ED93
:100C600001BA93ED02AA7C4BF0EE4A0A1A68D3F857
:100C700004809B6800F0A2FEF0EE4A0AF0EE40AA63
:100C8000B0EE4B0A00F09AFE19EE100A01F096F948
:100C9000064640460F4601F091F95FA3D3E90023D1
:100CA00001F0E0F902460B463046394601F026F8DD
:100CB00001F0EAFB01F082F959A3D3E9002301F026
:100CC000D1F9DFED667A6AEEA77A064617EE900A4A
:100CD0000F4601F073F954A3D3E9002301F0ECFAB5
:100CE00001F0D2FB01F06AF951A3D3E9002301F02E
:100CF000B9F902460B463046394601F001F801F0D9
:100D0000C3FBDFED577A09EE100AB4EEE79AF1EE75
:100D100010FA06DCDFED537AB4EEE79AF1EE10FA42
:100D200014D545489FED458A4FF400410024AC613D
:100D300000F0CCFA40484FF4804100F0C9FA404B33
:100D400032225A639A63DA631A6412E0F1EE047A8B
:100D5000B4EEE78AF1EE10FA09DCF9EE047AB4EEAB
:100D6000678AF1EE10FA48BFB0EE678A01E0B0EE94
:100D7000678AAB69002B3FF417AF39EEC97ADFED14
:100D80003A7ADFED3A6A3A4A77EE688AA7EE278A1E
:100D90001588108811881288C8EEA78ADFED357A89
:100DA00068EE277AE7EE267AE8EEA97AFDEEE77A92
:100DB000CDED017ABDF8043013FA85F5ADB213FA22
:100DC00080F0C91A642DA2EB030380B289B29BB2F2
:100DD00003D8312D98BF322500E06425642803D85C
:100DE000312898BF322000E06420642903D83129DB
:100DF00098BF322100E06421642B03D8312B98BFC7
:100E0000322300E064230E4AF0EE478A5563906374
:100E1000D1631364C8E600BF5F07CE1951DA6B3F98
:100E20005C8FC2F5285CEF3F182D4454FB2109402C
:100E30007B14AE47E17A943F000C024000000000B2
:100E4000000400407D250008A00400207804002054
:100E500000000240BC040020B00400200000344325
:100E600000008C4200008CC289D25E3BCDCC4C3D50
:100E7000C80400200AD7A33C1D4A936803F00C0362
:100E8000042B10B503D0082B03D01A4B18E01A4BD3
:100E900016E05168536811F4800F03F03F03516866
:100EA00014BF154A134AB2FBF3F3114A5268C2F356
:100EB0000142C1F3881101324B435200B3FBF2F3FC
:100EC0000B4A036093680D49C3F30313CC5C0368BA
:100ED000E34043609468C4F382240C5D23FA04F475
:100EE00084609268C2F342328A5CD340C36010BD12
:100EF000003802400024F40000127A000C000020A8
:100F0000044B1A6B09B1104301E022EA0000186398
:100F1000704700BF00380240044B1A6C09B11043FF
:100F200001E022EA00001864704700BF0038024068
:100F3000044B5A6C09B1104301E022EA00005864E6
:100F4000704700BF0038024010B50139034611F860
:100F5000012F1C1A12B103F8012BF8E7204610BD2F
:100F6000092B70B502F1FF3205460E461C4601D82A
:100F7000034606E00A23B4FBF3F3FFF7F1FF291859
:100F800008E0002AA3EB0500194603DD03F8016B16
:100F9000013AF6E70A22B4FBF2F302FB13433033C3
:100FA0000B70013070BDF8B583EAE374A4EBE37411
:100FB000092C164605460F4602F1FF320AD9002BCE
:100FC0004FF00A03B4FBF3F3B8BF5B42FFF7EBFF4C
:100FD0002A1815E0002BB8BFB21E0138511E091A9D
:100FE0002944002902DD00F8017FF7E7002B22EAFF
:100FF000E27005EB0002BFBF2D232B5401320130FC
:101000000A21B4FBF1F301FB1343303313700130B9
:10101000F8BDF7B5089C5FEA141E05460F461E464C
:1010200002F1FF3201D1034605E0CDF800E0FFF701
:10103000F0FF291808E0002AA3EB0500194603DD9C
:1010400003F8017B013AF6E704F00F03092B01D8FE
:10105000303303E00EB1373300E0573301300B700B
:1010600003B0F0BD2DE9F3410E46044608B100215E
:1010700001700025117831B9B5424FF0000366D2F6
:101080002370284669E0B542F6D2252902D0013204
:10109000217004E05178252904D1217002320135F4
:1010A0000134E7E7302916BF501C901C2021002294
:1010B0000778A7F1300EBEF1090F804600F101005C
:1010C00007D802EB820207EB4202303A02F0FF023D
:1010D000EEE7A818B04284BF721BD2B2692F18D0B5
:1010E0000BD8632F2AD0642F13D0582F33D11F1D54
:1010F0001B680093204601231DE0752F0FD0782F29
:1011000014D0732F27D1204619681F1DFFF71CFF2D
:101110000AE01F1D20461B68FFF745FF04E01F1D66
:1011200020461B68FFF71CFF3B460BE01F1D1B689A
:10113000009320460023FFF76CFFF5E71A68227042
:101140000433012008F101020444054492E704F845
:10115000013C681E01E04FF0FF3002B0BDE8F081B5
:1011600010B50C46134664212246BDE81040FFF737
:1011700079BF0000084B1B689A68914210B504467D
:1011800002D0DB68994204D1E0B2FEF7FDFF2046B1
:1011900010BD4FF0FF3010BD2000002070B5054697
:1011A0000E460446601B14F8013B2BB1184631462D
:1011B000FFF7E0FF431CF5D170BD0000F0B5124B06
:1011C000A3B006468E466C4603F1200C6F461868A5
:1011D0005968254603C5083363452C46F7D118687E
:1011E0002860714609A8FFF7BBFF632806DD074B9F
:1011F0001B683846D968FFF7D1FFFEE709A83146DA
:10120000FFF7CCFF23B0F0BD8825000820000020A8
:101210000A4603490968034688681946FFF7CEBFA6
:10122000200000200FB407B504A951F8040B019168
:10123000FFF7EEFF03B05DF804EB04B07047000069
:10124000024B1B689968FFF7A9BF00BF2000002070
:10125000F0B50E6800220123934003EA060E9E4576
:101260002AD1550003230468AB40DB431C400460D3
:101270000C79076804FA05FC013C4CEA0707012CCD
:10128000076011D884684F791C4084608468AF403F
:1012900027438760446824EA0E0444608C794768D9
:1012A0009440A4B23C434460C4682340C360CB79FB
:1012B000C468AB402343C3600132102ACBD1F0BDD8
:1012C0000369194214BF0120002070470183704751
:1012D00041837047436959404161704701F00703FA
:1012E000C90800EB810010B59B00046A0F219940EA
:1012F00024EA01010162016A9A401143016210BDB2
:10130000ABBE01E000207047002A00D01060012031
:10131000704706980188034A914202D10430069032
:101320007047FEE7ABBE0000374AD2F8883043F47E
:101330007003C2F88830354B1A68002142F0010270
:101340001A6099601A6822F0847222F480321A605E
:101350002F4A5A601A6882B022F480221A60D9603B
:10136000009101911A6842F480321A60274B1A6882
:1013700002F400320192009A01320092019A1AB9E5
:10138000009AB2F5A06FF1D11B6813F4003318BFB7
:1013900001230193019B012B05D01B4B4FF00062F1
:1013A0009A6002B07047194B1A491A6C42F0805289
:1013B0001A640A6842F480420A609A689A609A68DD
:1013C00042F400429A609A6842F4A0529A60124A2B
:1013D0005A601A6842F080721A6019680B4A8901D3
:1013E000FBD50E4B40F205611960936823F00303AF
:1013F0009360936843F002039360044B9B6803F08F
:101400000C03082BF9D1C8E700ED00E000380240DA
:10141000103000240070004008544007003C024097
:101420007FB5868826F03F060446360468460D469A
:10143000360CFFF721FD029A2C48B2FBF0F081B286
:101440000E43A68023882A4E23F001031B041B0CA5
:1014500023802B68B3420AD85B000131B2FBF3F35F
:101460009BB2032B89B298BF0423218423E0EE882A
:101470004BF6FF718E421BBF19214B4303EB430315
:10148000B2FBF3F315BF9BB2B2FBF3F343F480431B
:101490009BB2C3F30B020AB943F001034FF49671F8
:1014A00001FB00F24FF47A7192FBF1F2013292B239
:1014B00043F400432284A38323886989AA889BB2CA
:1014C00043F001032380238823F4816323F0020384
:1014D0001B040A431B0C13439BB223802A89AB894C
:1014E00013439BB2238104B070BD00BF40420F0084
:1014F000A0860100038819B19BB243F0010303E009
:1015000023F001031B041B0C03807047038819B1EF
:101510009BB243F4807303E023F480731B041B0C21
:1015200003807047038819B19BB243F4007303E052
:1015300023F400731B041B0C0380704712B141F0AD
:10154000010101E001F0FE0189B2018270470388C8
:1015500019B19BB243F4806303E023F480631B045E
:101560001B0C0380704701827047008AC0B270472D
:10157000838A9AB2038B10B542EA034321F07F4479
:1015800004EA0300431A5842584110BD82B00023B8
:10159000009301930B0F01900093009B21F07F417A
:1015A00013B1019B143302E0019B090C1833019322
:1015B000019B1B68194214BF0120002002B0704734
:1015C00082790168037970B5002A29D0194A156813
:1015D000CE4335401560546803F1804303F59E33D4
:1015E000344054601C682143196003689468DD43EB
:1015F0002C409460D1682940D160417910290BBFFB
:10160000916801F18042194302F59E3205BF916055
:10161000D16811680B4316BF0B43D360136070BDD4
:1016200003F1804303F59E331A6822EA0101196031
:1016300070BD00BF003C0140054B1A685B69034068
:1016400004D0104214BF0120002070471846704794
:10165000003C0140014B5861704700BF003C014015
:10166000C278037810B512B3164AD1684278C943DC
:10167000C1F30221C1F10404E4B2A240D4B20F22AA
:101680000A4181780A40224303F1604303F5614334
:101690001201D2B283F8002303780122590903F022
:1016A0001F0302FA03F3084A42F8213010BD5A0919
:1016B000012103F01F03994002F12003024A42F87E
:1016C000231010BD00ED00E000E100E01C4A03889B
:1016D00090429BB212D002F5806290420ED0B0F1DF
:1016E000804F0BD0A2F58032904207D002F5806285
:1016F000904203D002F58062904203D14A8823F0E1
:10170000700313430F4A904208D002F58062904262
:101710001FBF23F440730A899BB2134303804B68B5
:10172000C3620B880385064B984203D003F58063A0
:10173000984201D18B7A038601238382704700BFD0
:1017400000000140001000404FF0FF3343600023D1
:1017500003800381438083727047406A7047038827
:1017600019B19BB243F0800303E023F080031B0414
:101770001B0C03807047038819B19BB243F001032F
:1017800003E023F001031B041B0C038070470000DF
:10179000038C23F001031B041B0C0384038C70B522
:1017A0008488028B0E8822F073021204120C23F03C
:1017B000020516434B888A892D0413430F4A2D0CCA
:1017C0002B439042A4B29BB203D002F580629042B8
:1017D0000ED1CA894D8A23F0080313438A8823F067
:1017E000040313430A8A24F4407415432C43A4B21F
:1017F0008A68848006834263038470BD00000140D0
:10180000038C23F010031B041B0C0384038C30B5E2
:101810008588028B0C8822F4E6421204120C42EAFC
:10182000042223F0200394B21B048A891B0C43EA90
:1018300002134A8843EA0213124A9042ADB29BB2A5
:1018400003D002F58062904215D123F08003CA894B
:101850009BB243EA02124FF6BF7313408A8843EAF1
:1018600002130A8A25F4406545EA82054A8A45EA58
:1018700082059BB2ADB28A6885800483826303844B
:1018800030BD00BF00000140038C23F480731B04B3
:101890001B0C0384038C30B58488828B0D8822F066
:1018A00073021204120C23F4007315431B048A897B
:1018B0001B0C43EA02234A8843EA0223124A90425D
:1018C000A4B29BB203D002F58062904215D123F4FA
:1018D0000063CA899BB243EA02224FF6FF331340EA
:1018E0008A8843EA02230A8A24F4405444EA021410
:1018F0004A8A44EA02149BB2A4B28A68848085832F
:10190000C263038430BD00BF00000140038C23F498
:1019100080531B041B0C0384038C30B58488828B9A
:101920000D8822F4E6421204120C23F4005342EA1A
:1019300005221B048D891B0C43EA05334D8843EABD
:1019400005330B4DA842A4B292B29BB203D005F569
:101950008065A84205D10D8A24F4804444EA8514A8
:10196000A4B2848082838A680264038430BD00BF8D
:1019700000000140038B23F008031B041B0C1943D8
:1019800001837047038B23F400631B041B0C43EAA1
:10199000012189B201837047838B23F008031B0464
:1019A0001B0C194381837047838B23F400631B0452
:1019B0001B0C43EA012189B28183704700F000B813
:1019C00010B582B0CDED010A019B23F00042B2F1C7
:1019D000FF4FF0EE407A19DC10EE100A20F00041C3
:1019E000B1F1FF4F12DCB3F17E5F49D09C1704F0D8
:1019F000020444EAD07479B9022C3ED09FED400A2B
:101A0000032C18BFB0EE670A02B010BD9DED017A3D
:101A100037EE270A02B010BD12B3B2F1FF4F34D037
:101A2000B1F1FF4F1CD08A1AD2153C2A22DC002BC0
:101A30004BDB9DED017A87EE870A00F053F900F049
:101A400075F8012C3AD0022C2FD0002CE2D09FED5B
:101A50002D7ADFED2D7A30EE070A30EE670AD9E7EE
:101A6000DFED2A7A9FED2A0A0028A8BFB0EE670AA8
:101A700002B010BD9FED250AE3E79FED230AC9E7F9
:101A800002B0BDE8104000F051B8B1F1FF4F21D0D5
:101A9000022CF2D0032C2AD0DFED1E7A9FED1E0A15
:101AA000012C08BFB0EE670AB4E79FED167ADFEDB0
:101AB000167A30EE070A37EEC00AABE710EE103A9E
:101AC00003F1004300EE103AA4E73C32B1DA9FED97
:101AD000120AB6E7022C10D0032C0BD0DFED0F7AE0
:101AE0009FED0F0A012C08BFB0EE670A92E79FED49
:101AF000040A8FE79FED0B0A8CE79FED0B0A89E73D
:101B0000DB0F49C02EBDBB33DB0F4940DB0FC93FA4
:101B1000DB0FC9BF0000008000000000DB0F49BFE1
:101B2000DB0F493FE4CB16C0E4CB164038B510EECE
:101B3000105A25F00044B4F1A14FF0EE407A0BDBCF
:101B4000B4F1FF4F58DCDFED547A9FED540A002DBD
:101B5000C8BFB0EE670A38BD514B9C425DDCB4F1A2
:101B6000445F4CDB4FF0FF3367EEA75A9FED4D1AF1
:101B70009FED4D2A9FED4D3ADFED4D1ADFED4D2AD9
:101B80009FED4D4ADFED4D3A9FED4D5ADFED4D4A49
:101B90009FED4D6ADFED4D6A25EEA57A5A1CA7EE42
:101BA000012AE7EE212AA2EE073AE2EE873AA3EEF7
:101BB000074AE3EE874AA4EE075AE4EE876AA5EEE9
:101BC000076A26EE877A66EE256A3ED0404A41498A
:101BD0009B001A4476EE876A92ED007A96EEA77A19
:101BE0000B44002D93ED000A77EE677A70EE677A6A
:101BF00028DBB0EE670A38BD30EE000A38BD9FED35
:101C0000367A30EE077AF7EE006AB4EEE67AF1EE55
:101C100010FAA7DDB0EE670A38BD00F063F82F4B6D
:101C20009C4219DCA3F5D0039C422ADCF0EE007A3A
:101C3000BFEE007AA0EE277A002370EE277AC7EE77
:101C4000277A91E7B1EE670A38BD76EE876AB0EE83
:101C5000670AA6EEE70A38BD214B9C420BDCF7EE83
:101C6000087AB7EE007AA0EE277A022370EE677A40
:101C7000C7EE877A78E7FFEE007AC7EE807A032313
:101C800072E7F7EE007A30EE677A70EE277A01237A
:101C9000C7EE277A68E700BFDB0FC93FDB0FC9BF7C
:101CA000FFFFDF3ED769853C59DA4B3D356B883DF8
:101CB00021A215BD6BF16EBD6E2EBA3D95879DBDFF
:101CC0002549123E388EE3BDABAAAA3ECDCC4CBE10
:101CD000AC250008BC250008CAF24971FFFF973FF8
:101CE000FFFF1B4010EE103A23F0004300EE103AC5
:101CF000704700BF81F0004102E000BF83F0004365
:101D000030B54FEA41044FEA430594EA050F08BF96
:101D100090EA020F1FBF54EA000C55EA020C7FEA5A
:101D2000645C7FEA655C00F0E2804FEA5454D4EBD7
:101D30005555B8BF6D420CDD2C4480EA020281EAA1
:101D4000030382EA000083EA010180EA020281EAD9
:101D50000303362D88BF30BD11F0004F4FEA01312B
:101D60004FF4801C4CEA113102D0404261EB41013A
:101D700013F0004F4FEA03334CEA133302D05242C0
:101D800063EB430394EA050F00F0A780A4F101047C
:101D9000D5F1200E0DDB02FA0EFC22FA05F28018B6
:101DA00041F1000103FA0EF2801843FA05F359419C
:101DB0000EE0A5F120050EF1200E012A03FA0EFC1B
:101DC00028BF4CF0020C43FA05F3C01851EBE37145
:101DD00001F0004507D54FF0000EDCF1000C7EEB62
:101DE00000006EEB0101B1F5801F1BD3B1F5001FA0
:101DF0000CD349085FEA30004FEA3C0C04F10104BF
:101E00004FEA445212F5800F80F09A80BCF1004FE7
:101E100008BF5FEA500C50F1000041EB045141EA69
:101E2000050130BD5FEA4C0C404141EB010111F46A
:101E3000801FA4F10104E9D191F0000F04BF014615
:101E40000020B1FA81F308BF2033A3F10B03B3F1F3
:101E500020020CDA0C3208DD02F1140CC2F10C0283
:101E600001FA0CF021FA02F10CE002F11402D8BFE1
:101E7000C2F1200C01FA02F120FA0CFCDCBF41EAAD
:101E80000C019040E41AA2BF01EB0451294330BD7C
:101E90006FEA04041F3C1CDA0C340EDC04F1140459
:101EA000C4F1200220FA04F001FA02F340EA030030
:101EB00021FA04F345EA030130BDC4F10C04C4F176
:101EC000200220FA02F001FA04F340EA0300294656
:101ED00030BD21FA04F0294630BD94F0000F83F4A0
:101EE000801306BF81F480110134013D4EE77FEA83
:101EF000645C18BF7FEA655C29D094EA050F08BFCF
:101F000090EA020F05D054EA000C04BF19461046AF
:101F100030BD91EA030F1EBF0021002030BD5FEAF3
:101F2000545C05D14000494128BF41F0004130BD1B
:101F300014F580043CBF01F5801130BD01F000456F
:101F400045F0FE4141F470014FF0000030BD7FEAE2
:101F5000645C1ABF194610467FEA655C1CBF0B46DD
:101F6000024650EA013406BF52EA033591EA030FF4
:101F700041F4002130BD00BF90F0000F04BF0021EC
:101F8000704730B54FF4806404F132044FF000051F
:101F90004FF0000150E700BF90F0000F04BF002198
:101FA000704730B54FF4806404F1320410F00045FE
:101FB00048BF40424FF000013EE700BF42004FEAF9
:101FC000E2014FEA31014FEA02701FBF12F07F4376
:101FD00093F07F4F81F06051704792F0000F14BF73
:101FE00093F07F4F704730B54FF4607401F00045B7
:101FF00021F0004120E700BF50EA010208BF70470E
:1020000030B54FF000050AE050EA010208BF704702
:1020100030B511F0004502D5404261EB41014FF46B
:10202000806404F132045FEA915C3FF4DCAE4FF06F
:1020300003025FEADC0C18BF03325FEADC0C18BF56
:10204000033202EBDC02C2F1200300FA03FC20FAA7
:1020500002F001FA03FE40EA0E0021FA02F11444F4
:10206000C1E600BF70B54FF0FF0C4CF4E06C1CEA09
:1020700011541DBF1CEA135594EA0C0F95EA0C0F7E
:1020800000F0DEF82C4481EA030621EA4C5123EAF1
:102090004C5350EA013518BF52EA033541F4801120
:1020A00043F4801338D0A0FB02CE4FF00005E1FBD3
:1020B00002E506F00042E0FB03E54FF00006E1FB1D
:1020C00003569CF0000F18BF4EF0010EA4F1FF0460
:1020D000B6F5007F64F5407404D25FEA4E0E6D41A0
:1020E00046EB060642EAC62141EA55514FEAC520B1
:1020F00040EA5E504FEACE2EB4F1FD0C88BFBCF52D
:10210000E06F1ED8BEF1004F08BF5FEA500E50F1DD
:10211000000041EB045170BD06F0004646EA0101A3
:1021200040EA020081EA0301B4EB5C04C2BFD4EBD5
:102130000C0541EA045170BD41F480114FF0000ECE
:10214000013C00F3AB8014F1360FDEBF002001F03C
:10215000004170BDC4F10004203C35DA0C341BDCB6
:1021600004F11404C4F1200500FA05F320FA04F088
:1021700001FA05F240EA020001F0004221F00041BC
:1021800010EBD37021FA04F642EB06015EEA430E2F
:1021900008BF20EAD37070BDC4F10C04C4F120055F
:1021A00000FA04F320FA05F001FA04F240EA020012
:1021B00001F0004110EBD37041F100015EEA430EE3
:1021C00008BF20EAD37070BDC4F1200500FA05F203
:1021D0004EEA020E20FA04F301FA05F243EA020382
:1021E00021FA04F001F0004121FA04F220EA020091
:1021F00000EBD3705EEA430E08BF20EAD37070BDD7
:1022000094F0000F0FD101F00046400041EB0101B6
:1022100011F4801F08BF013CF7D041EA060195F098
:10222000000F18BF704703F00046520043EB030352
:1022300013F4801F08BF013DF7D043EA060370473F
:1022400094EA0C0F0CEA135518BF95EA0C0F0CD04A
:1022500050EA410618BF52EA4306D1D181EA030190
:1022600001F000414FF0000070BD50EA410606BF8A
:102270001046194652EA430619D094EA0C0F02D1CF
:1022800050EA013613D195EA0C0F05D152EA033614
:102290001CBF104619460AD181EA030101F0004132
:1022A00041F0FE4141F470014FF0000070BD41F07B
:1022B000FE4141F4780170BD70B54FF0FF0C4CF455
:1022C000E06C1CEA11541DBF1CEA135594EA0C0F74
:1022D00095EA0C0F00F0A7F8A4EB050481EA030EC1
:1022E00052EA03354FEA013100F088804FEA0333A8
:1022F0004FF0805545EA131343EA12634FEA022276
:1023000045EA111545EA10654FEA00260EF0004136
:102310009D4208BF964244F1FD0404F5407402D288
:102320005B084FEA3202B61A65EB03055B084FEA19
:1023300032024FF480104FF4002CB6EB020E75EB16
:10234000030E22BFB61A754640EA0C005B084FEA3E
:102350003202B6EB020E75EB030E22BFB61A7546BB
:1023600040EA5C005B084FEA3202B6EB020E75EB06
:10237000030E22BFB61A754640EA9C005B084FEA7E
:102380003202B6EB020E75EB030E22BFB61A75468B
:1023900040EADC0055EA060E18D04FEA051545EA7A
:1023A00016754FEA06164FEAC30343EA52734FEA23
:1023B000C2025FEA1C1CC0D111F4801F0BD141EA9C
:1023C00000014FF000004FF0004CB6E711F4801F01
:1023D00004BF01430020B4F1FD0C88BFBCF5E06FE1
:1023E0003FF6AFAEB5EB030C04BFB6EB020C5FEAF1
:1023F000500C50F1000041EB045170BD0EF0004E46
:102400004EEA113114EB5C04C2BFD4EB0C0541EA77
:10241000045170BD41F480114FF0000E013C90E674
:1024200045EA060E8DE60CEA135594EA0C0F08BF38
:1024300095EA0C0F3FF43BAF94EA0C0F0AD150EA37
:1024400001347FF434AF95EA0C0F7FF425AF1046CA
:1024500019462CE795EA0C0F06D152EA03353FF4F2
:10246000FDAE1046194622E750EA410618BF52EA6F
:1024700043067FF4C5AE50EA41047FF40DAF52EA43
:1024800043057FF4EBAE12E74FEA4102B2F1E043BD
:1024900024BFB3F5001CDCF1FE5C0DD901F0004C4B
:1024A0004FEAC0024CEA5070B2F1004F40EB83009B
:1024B00008BF20F00100704711F0804F21D113F1C7
:1024C0003872BCBF01F00040704741F480114FEA00
:1024D0005252C2F11802C2F1200C10FA0CF320FA89
:1024E00002F018BF40F001004FEAC1234FEAD323A6
:1024F00003FA0CFC40EA0C0023FA02F34FEA430310
:10250000CCE77FEA625307D150EA01331EBF4FF098
:10251000FE4040F44000704701F0004040F0FE40B3
:1025200040F40000704700BF4D583A202564202039
:10253000202020202020202020004D593A202564F2
:102540002020202020202020202020004D5A3A202A
:1025500025640D0A0042503A2025642020202020C6
:102560002020202020200042543A2025640D0A001B
:1025700043495F656E643A2025640D0A004F646329
:102580007A7974793A200D00737464696F2E633A16
:1025900020696E637265617365204D41585F5354C5
:1025A00052494E475F53495A450A0D006937AC31CD
:1025B00068212233B40F14336821A2333863ED3E0F
:0C25C000DA0F493F5E987B3FDA0FC93FFD
:1025CC003900000023000000200000000000000083
:1025DC0001020304010203040607080900000000BD
:1025EC002800002000000000000000000000000097
:1025FC0001000000000000000000000000000000CE
:10260C0000000000000000000000000000000000BE
:10261C0000000000000000000000000000000000AE
:10262C00000000000000000000000000000000009E
:10263C00000000000000000000000000000000008E
:102A1C00007A030A00000000000000000102030419
:042A2C000607080988
:0400000508000000EF
:00000001FF
