:020000040800F2
:10000000780C0020F10100085D020008B71100081B
:100010005D0200085D0200085D02000800000000AB
:100020000000000000000000000000005D02000869
:100030005D020008000000005D0200085D0200088B
:100040005D0200085D0200085D0200085D02000814
:100050005D0200085D0200085D0200085D02000804
:100060005D0200085D0200085D0200085D020008F4
:100070005D0200085D0200085D0200085D020008E4
:100080005D0200085D0200085D0200085D020008D4
:100090005D0200085D0200085D0200085D020008C4
:1000A0005D0200085D0200085D0200085D020008B4
:1000B0009D0500085D0200085D0200085D02000861
:1000C0005D0200085D0200085D0200085D02000894
:1000D0005D0200085D0200085D0200085D02000884
:1000E0005D0200085D0200085D0200085D02000874
:1000F0005D0200085D0200085D0200085D02000864
:100100005D0200085D0200085D0200085D02000853
:100110005D0200085D0200085D0200085D02000843
:100120005D0200085D0200085D0200085D02000833
:100130005D0200085D0200085D0200085D02000823
:100140005D0200085D0200085D0200085D02000813
:100150005D0200085D0200085D0200085D02000803
:100160005D0200085D0200085D0200085D020008F3
:100170005D0200085D0200085D0200085D020008E3
:100180005D0200085D02000880B582B000AF7860B3
:10019000154B1B785A1CD1B2134A11701A467B6852
:1001A000D9B2124B9954104B1B781A460F4B0021B1
:1001B00099540D4B1B7801330F2B05D87B680A2B04
:1001C00002D07B68002B0CD1074B00221A70074B22
:1001D00004201946002200F0E5FF0346002B00D062
:1001E00000BF0837BD4680BD5404002044040020F1
:1001F00080B582B000AF134B7B60134B3B6007E0D0
:100200003B681A1D3A607A68111D796012681A609D
:100210003B680E4A9342F3D30D480E494FF000025B
:100220008842B8BF40F8042BFADBDFF82C000168E5
:1002300041F47001016000F0C9FF00F051FA083785
:10024000BD4680BD64210008000000204404002059
:10025000440400207804002088ED00E080B400AF62
:10026000FEE700BF80B582B000AF0820012100F09A
:10027000ABFA4FF204033B6001233B7103237B7114
:100280000023BB710023FB713B460348194600F075
:100290007DFE0837BD4680BD000C024080B582B0AF
:1002A00000AF0120012100F08FFA01233B60002301
:1002B0003B710023BB710223FB7102237B713B4620
:1002C0000348194600F062FE0837BD4680BD00BFF6
:1002D0000000024080B582B000AF0220012100F092
:1002E00091FA0620012100F06FFAC0233B6002233F
:1002F0003B7103237B710023BB710123FB713B46E0
:100300001448194600F042FE03233B6002233B7170
:1003100003237B710023BB710123FB713B460E4815
:10032000194600F033FE0B480621022200F0F2FECF
:1003300008480721022200F0EDFE074800210222B2
:1003400000F0E8FE04480121022200F0E3FE083735
:10035000BD4680BD000802400004024080B58CB05C
:1003600000AF78600023FB852E4B1B682E4AA2FB52
:100370000323DB0B9BB2013BFB857B687B62FB8D20
:100380003B8400233B8500237B8407F1200327481F
:10039000194601F007F96023BB810123FB8100238B
:1003A0007B6100233B8307F10C032048194601F0D1
:1003B000B1F91E48082101F09BFB0123FB810023BA
:1003C0007B6107F10C031948194601F01DFA174823
:1003D000082101F0A9FB0123FB8100237B6107F1C8
:1003E0000C031248194601F097FA1048082101F051
:1003F000B9FB0123FB8100237B6107F10C030B4850
:10040000194601F00FFB0948082101F0C7FB074816
:10041000012101F03FF90548012101F05BF9303776
:10042000BD4680BD3004002073B2E74500040040A3
:1004300080B483B000AF03460A46FB801346BB80FE
:10044000FB88012B03D10D4ABB88536310E0FB8866
:10045000022B03D1094ABB88936309E0FB88032B75
:1004600003D1064ABB88D36302E0044ABB88136405
:100470000C37BD465DF8047B704700BF00040040A8
:1004800080B586B000AF4FF0804000F0ADFF012096
:10049000012100F0B7F90920012100F095F920238E
:1004A0003B6102233B7503237B750023BB7501234E
:1004B000FB7507F110033648194600F067FD344814
:1004C0000521012200F026FE32480421012200F01D
:1004D00021FE30480721012200F01CFE2D48062194
:1004E000012200F017FE1C233B7001237B700023C8
:1004F000BB700123FB703B46184600F015FF264BEE
:1005000000221A80244B00225A80234B01229A8019
:10051000214B0022DA80204B00221A813B1D4FF034
:100520008040194601F058FB0423BB800223FB8066
:1005300001233B8100237B810023BB813B1D4FF0C6
:100540008040194601F048FB0823BB803B1D4FF05B
:100550008040194601F040FB0C23BB803B1D4FF04F
:100560008040194601F038FB4FF08040012101F036
:10057000B1F84FF080401E21012201F025FC4FF020
:1005800080401E2101F044FC1837BD4680BD00BFED
:1005900000000240000C02405804002080B500AF6B
:1005A0004A484FF4805100F099FD4FF080431B8A78
:1005B0009BB203F00203002B3CD04FF080424FF07F
:1005C00080431B8A9BB223F002039BB21382404BF1
:1005D0001B78DBB2002B08D13E4B02225A804FF031
:1005E0008040002101F048F814E03A4B00225A8084
:1005F0004FF0804001F044FB0246374B1A6033480D
:100600004FF4005100F06AFD334B1B683348194624
:1006100000F052FC2E4B1B78DBB2002B0CBF0123E9
:100620000023DBB21A462A4B1A704FF0804029494A
:1006300001F0D2FA4FF080431B8A9BB203F004030F
:10064000002B10D04FF080424FF080431B8A9BB2AA
:1006500023F004039BB213824FF0804001F01CFB97
:1006600002461D4B5A604FF080431B8A9BB203F039
:100670000803002B10D04FF080424FF080431B8ABC
:100680009BB223F008039BB213824FF0804001F02D
:100690000FFB0246104B9A604FF080431B8A9BB2BF
:1006A00003F01003002B10D04FF080424FF0804336
:1006B0001B8A9BB223F010039BB213824FF0804041
:1006C00001F002FB0246044BDA6080BD000C0240E0
:1006D000740400205804002064040020AC200008AA
:1006E00080B582B000AF00F071FDFFF7BBFDFFF7F2
:1006F000D5FDFFF7EFFD6420FFF730FE012032212A
:10070000FFF796FE02203221FFF792FE03203221EE
:10071000FFF78EFE04203221FFF78AFEFFF7B0FEBE
:1007200026484FF4004100F0D9FC254800F0D8FBE2
:1007300000237B602348012100F0B6FC0346002B18
:100740003BD07B68002B1CD11C484FF4004100F0CB
:10075000D3FC1A484FF4804100F0C0FC0120412135
:10076000FFF766FE02204121FFF762FE03204121D0
:10077000FFF75EFE04204121FFF75AFE01237B6054
:100780001BE00E484FF4004100F0A8FC0B484FF46A
:10079000804100F0B1FC01203221FFF749FE022028
:1007A0003221FFF745FE03203221FFF741FE0420EE
:1007B0003221FFF73DFE00237B60BBE7000C0240C7
:1007C000342100080000024080B483B000AF78609C
:1007D0000B46FB70FB78002B06D00949084B1A6BBF
:1007E0007B6813430B6306E00549054B1A6B7B6876
:1007F000DB4313400B630C37BD465DF8047B704749
:100800000038024080B483B000AF78600B46FB70C4
:10081000FB78002B06D00949084B1A6C7B68134300
:100820000B6406E00549054B1A6C7B68DB431340FB
:100830000B640C37BD465DF8047B704700380240FE
:1008400080B483B000AF78600B46FB70FB78002B60
:1008500006D00949084B1A6A7B6813430B6206E00D
:100860000549054B1A6A7B68DB4313400B620C3762
:10087000BD465DF8047B70470038024080B483B009
:1008800000AF78600B46FB70FB78002B06D009495F
:10089000084B5A6A7B6813434B6206E00549054BD7
:1008A0005A6A7B68DB4313404B620C37BD465DF8E8
:1008B000047B70470038024080B582B000AF034629
:1008C000FB71FB791846FFF75FFC0837BD4680BD1A
:1008D00080B483B000AF78600B46FB707B68FA7819
:1008E0001A70012318460C37BD465DF8047B70472B
:1008F00080B485B000AF786039600023FB600AE007
:100900007B685A1C7A603A68511C396012781A70F8
:10091000FB680133FB603B681B78002BF0D1FB6860
:1009200018461437BD465DF8047B704780B586B025
:1009300000AFF8607A603B600B46FB7200237B617E
:100940007B68013B7B603B68092B10D93B681E4AE2
:10095000A2FB0323DB08FA7AF86811467A68FFF7EE
:10096000E5FF78617B69FA681344FB6011E00DE0F4
:10097000FB7AF8681946FFF7ABFFFB680133FB60B1
:100980007B6901337B617B68013B7B607B68002B6B
:10099000EEDC39680C4BA3FB0123DA0813469B00FD
:1009A00013445B00CA1AD3B23033DBB2F86819467D
:1009B000FFF78EFF02467B6913447B617B69184613
:1009C0001837BD4680BD00BFCDCCCCCC90B587B02C
:1009D00000AFF8607A603B600B46FB7200237B61DE
:1009E0003B68002B03DA3B685B423B6101E03B68FC
:1009F0003B617B68013B7B603B69092B25D93B68E8
:100A0000002B0FDA3B69314AA2FB0323DB085B4270
:100A10001C46FB7AF86819467A682346FFF7D6FF2A
:100A200078610DE03B69294AA2FB0323DB081C46E1
:100A3000FB7AF86819467A682346FFF7C7FF7861A2
:100A40007B69FA681344FB6025E03B68002B02DAFF
:100A50007B68013B7B600DE0FB7AF8681946FFF785
:100A600037FFFB680133FB607B6901337B617B6887
:100A7000013B7B607B68002BEEDC3B68002B0ADAD5
:100A8000F8682D21FFF724FF02467B6913447B6140
:100A9000FB680133FB6039690C4BA3FB0123DA08C7
:100AA00013469B0013445B00CA1AD3B23033DBB247
:100AB000F8681946FFF70CFF02467B6913447B6117
:100AC0007B6918461C37BD4690BD00BFCDCCCCCC51
:100AD00090B589B002AFF8607A601A460B46FB7297
:100AE0001346BB7200237B617B68013B7B60BB6A62
:100AF0001B09002B13D0BB6A1B09FA7ABC7A00933E
:100B0000F86811467A682346FFF7E2FF02467B69E0
:100B100013447B617B69FA681344FB6011E00DE0CC
:100B2000FB7AF8681946FFF7D3FEFB680133FB60D8
:100B30007B6901337B617B68013B7B607B68002BB9
:100B4000EEDCBB6A03F00F03092B0BD8BB6ADBB2E8
:100B500003F00F03DBB23033DBB2F8681946FFF75E
:100B6000B7FE19E0BB7A002B0BD0BB6ADBB203F0F7
:100B70000F03DBB23733DBB2F8681946FFF7A8FE84
:100B80000AE0BB6ADBB203F00F03DBB25733DBB220
:100B9000F8681946FFF79CFE7B6901337B617B692E
:100BA00018461C37BD4690BD90B58BB002AFF860BB
:100BB000B9607A603B600023BB6100237B61FB6806
:100BC000002B02D0FB6800221A70FCE07B681B78C7
:100BD000252B0BD0FB685A1CFA607A68511C79608F
:100BE00012781A707B6901337B61ECE07B6801331A
:100BF0001B78252B0BD1FB685A1CFA6025221A7032
:100C00007B6802337B607B6901337B61DBE02023FF
:100C1000FB770023BB777B6801337B607B681B78A5
:100C2000302B04D13023FB777B6801337B600EE0EF
:100C3000BB7F1A46920013445B00DAB27B681B78D4
:100C40001344DBB2303BBB777B6801337B607B684E
:100C50001B782F2B03D97B681B78392BE8D9BA7FF7
:100C60007B6913441A46BB689A4205D9BB68DAB25D
:100C70007B69DBB2D31ABB777B681B78583B202B90
:100C800000F2938001A252F823F000BF630D000828
:100C9000AB0D0008AB0D0008AB0D0008AB0D000854
:100CA000AB0D0008AB0D0008AB0D0008AB0D000844
:100CB000AB0D0008AB0D0008950D0008110D0008E4
:100CC000AB0D0008AB0D0008AB0D0008AB0D000824
:100CD000110D0008AB0D0008AB0D0008AB0D0008AE
:100CE000AB0D0008AB0D0008AB0D0008AB0D000804
:100CF000AB0D0008AB0D0008810D0008AB0D00081E
:100D00002B0D0008AB0D0008AB0D0008450D0008C9
:100D1000BC7F3B681A1D3A601B68FA7FF868114671
:100D20002246FFF753FEB86142E0BC7F3B681A1DC4
:100D30003A601B68FA7FF86811462246FFF7F6FD15
:100D4000B86135E0BC7F3B681A1D3A601B68FA7FCA
:100D50000093F868114622460023FFF7B9FEB861F8
:100D600026E0BC7F3B681A1D3A601B68FA7F00933F
:100D7000F868114622460123FFF7AAFEB86117E082
:100D80003B681A1D3A601B68F8681946FFF7B0FD0A
:100D9000B8610DE03B681A1D3A601B68DBB2F86869
:100DA0001946FFF795FDB86102E04FF0FF3325E0EB
:100DB0007B6801337B60BB69FA681344FB607A6926
:100DC000BB6913447B617B681B78002B04D07A6974
:100DD000BB689A42FFF4FAAE7A69BB689A4203D2C2
:100DE000FB6800221A7008E0FB68013BFB60FB68AF
:100DF00000221A707B69013B7B617B6918462437AE
:100E0000BD4690BD80B584B000AFF860B9607A602F
:100E1000F8686421BA687B68FFF7C6FE0346184687
:100E20001037BD4680BD00BFB0B5A6B000AFF860BA
:100E3000B9607A60144B07F110041D460FCD0FC442
:100E40000FCD0FC42B68236007F134031846B9682F
:100E50007A68FFF7D7FF0346632B09DD0B4B1B684E
:100E6000DB6807F110021046194600F06BF8FEE748
:100E700007F134031846F96800F064F80346184691
:100E80009837BD46B0BD00BF4021000828040020AF
:100E900080B582B000AF78603960064B1B689B68F4
:100EA000184679683A68FFF7BFFF034618460837C7
:100EB000BD4680BD280400200FB480B582B000AFCD
:100EC00007F114033B6038693968FFF7E1FF786088
:100ED0007B6818460837BD46BDE8804004B07047BF
:100EE00080B582B000AF7860054B1B689B6878685E
:100EF000194600F027F8034618460837BD4680BD5E
:100F00002804002080B582B000AF786039600C4BB7
:100F10001B689A683B689A4205D0094B1B68DA68DF
:100F20003B689A4206D17B68DBB21846FFF7C4FCE7
:100F30007B6801E04FF0FF3318460837BD4680BD9F
:100F40002804002080B584B000AF786039600023A9
:100F5000FB6012E07B681B7818463968FFF7D2FF08
:100F60000346B3F1FF3F02D14FF0FF330AE0FB68C5
:100F70000133FB607B6801337B607B681B78002B4F
:100F8000E8D1FB6818461037BD4680BD80B487B0F5
:100F900000AF7860396000237B6100233B61002350
:100FA000FB6000237B6176E07B69012202FA03F398
:100FB0003B613B681A683B691340FB60FA683B6918
:100FC0009A4265D17B681A687B695B0019460323E6
:100FD0008B40DB431A407B681A607B681A683B6869
:100FE0001B7919467B695B0001FA03F31A437B689E
:100FF0001A603B681B79012B03D03B681B79022BDD
:101000002ED17B689A687B695B00194603238B406D
:10101000DB431A407B689A607B689A683B685B791F
:1010200019467B695B0001FA03F31A437B689A60F7
:101030007B685A687B699BB2194601238B40DB436E
:101040001A407B685A607B685B683A6892791146FF
:101050007A6992B201FA02F292B21A437B685A603C
:101060007B68DA687B699BB25B00032101FA03F3BA
:10107000DB431A407B68DA607B68DA683B68DB79BF
:1010800019467B695B0001FA03F31A437B68DA6057
:101090007B6901337B617B690F2B85D91C37BD468A
:1010A0005DF8047B704700BF80B485B000AF786006
:1010B0000B467B800023FB737B681A697B88134097
:1010C000002B02D00123FB7301E00023FB73FB7BA9
:1010D00018461437BD465DF8047B704780B483B072
:1010E00000AF78600B467B807B687A881A830C3768
:1010F000BD465DF8047B704780B483B000AF786074
:101100000B467B807B687A885A830C37BD465DF836
:10111000047B704780B485B000AF78600B467B805D
:1011200013467B700023FB600023BB607B787A88CA
:1011300002F0070292009340FB607B88DB089BB2C1
:1011400018467B88DB089BB21A467B68083253F846
:1011500022207B8803F007039B0019460F238B4056
:10116000DB4302EA03017B6800F1080243F8221026
:101170007B88DB089BB21A467B68083253F8222032
:10118000FB681343BB607B88DB089BB21A467B6815
:101190000832B96843F822101437BD465DF8047B65
:1011A000704700BFABBE01E000207047002A00D0AE
:1011B00010600120704706980188034A914202D1CD
:1011C000043006907047FEE7ABBE000080B500AF6C
:1011D000154A154BD3F8883043F47003C2F88830B1
:1011E000124A124B1B6843F0010313600F4B00229D
:1011F0009A600E4A0D4B1B6823F0847323F48033EE
:1012000013600A4B0A4A5A60084A084B1B6823F4C9
:1012100080231360054B0022DA6000F00BF8024BCC
:101220004FF000629A6080BD00ED00E0003802409F
:101230001030002480B483B000AF00237B60002313
:101240003B60354A344B1B6843F480331360324BA8
:101250001B6803F400333B607B6801337B603B68B1
:10126000002B03D17B68B3F5A06FF0D12A4B1B682C
:1012700003F40033002B02D001233B6001E0002384
:101280003B603B68012B42D1234A234B1B6C43F04C
:1012900080531364214A214B1B6843F4804313603D
:1012A0001D4A1D4B9B6893601B4A1B4B9B6843F474
:1012B00000439360184A184B9B6843F4A053936013
:1012C000154B174A5A60144A134B1B6843F080733E
:1012D000136000BF104B1B6803F00073002BF9D0A4
:1012E000104B40F205621A600B4A0B4B9B6823F0CF
:1012F00003039360084A084B9B6843F00203936022
:1013000000BF054B9B6803F00C03082BF9D10C3789
:10131000BD465DF8047B7047003802400070004015
:1013200008544007003C024080B485B000AF7860AC
:101330000023FB730023BB730F237B737B68DB7875
:10134000002B38D0264BDB68DB4303F4E0631B0A39
:10135000FB73FB7BC3F10403BB737A7BFB7B42FA19
:1013600003F37B737B685B781A46BB7B02FA03F35B
:10137000FB737B689A787B7B1340DAB2FB7B134369
:10138000FB73FB7B1B01FB73164A7B681B781344C2
:10139000FA7B83F80023134A7B681B785B09DBB276
:1013A00018467B681B7803F01F03012101FA03F341
:1013B00042F820300FE00B497B681B785B09DBB2F9
:1013C00018467B681B7803F01F0301229A4000F146
:1013D000200341F823201437BD465DF8047B704795
:1013E00000ED00E000E100E080B582B000AF786081
:1013F0007B685F4A934208D101200121FFF73EFA42
:1014000001200021FFF73AFAAFE07B68B3F1804F8B
:1014100008D101200121FFF713FA01200021FFF775
:101420000FFAA2E07B68534A934208D102200121BF
:10143000FFF706FA02200021FFF702FA95E07B6829
:101440004D4A934208D104200121FFF7F9F9042005
:101450000021FFF7F5F988E07B68484A934208D1FC
:1014600008200121FFF7ECF908200021FFF7E8F937
:101470007BE07B68424A934208D110200121FFF7AC
:10148000DFF910200021FFF7DBF96EE07B683D4AB1
:10149000934208D120200121FFF7D2F9202000211A
:1014A000FFF7CEF961E07B68374A934208D102200A
:1014B0000121FFF7E3F902200021FFF7DFF954E0F3
:1014C0007B68324A93420AD14FF480300121FFF702
:1014D000D5F94FF480300021FFF7D0F945E07B6863
:1014E0002B4A93420AD14FF400300121FFF7C6F98D
:1014F0004FF400300021FFF7C1F936E07B68254A40
:1015000093420AD14FF480200121FFF7B7F94FF43D
:1015100080200021FFF7B2F927E07B681E4A934242
:1015200008D140200121FFF78BF940200021FFF76F
:1015300087F91AE07B68194A934208D1802001217B
:10154000FFF77EF980200021FFF77AF90DE07B6834
:10155000134A934209D14FF480700121FFF770F9CB
:101560004FF480700021FFF76BF90837BD4680BD4E
:10157000000001400004004000080040000C004052
:1015800000100040001400400004014000400140F1
:10159000004401400048014000180040001C004089
:1015A0000020004080B485B000AF7860396000232F
:1015B000FB817B681B88FB817B68284A934213D0A0
:1015C0007B68274A93420FD07B68B3F1804F0BD0E2
:1015D0007B68244A934207D07B68234A934203D016
:1015E0007B68224A934208D1FB8923F07003FB8178
:1015F0003B685A88FB891343FB817B681C4A9342F2
:101600000CD07B681B4A934208D0FB8923F44073BB
:10161000FB813B681A89FB891343FB817B68FA894C
:101620001A803B685A687B68DA623B681A887B6874
:101630001A857B68094A934203D07B68084A934223
:1016400004D13B689B7A9AB27B681A867B68012238
:101650009A821437BD465DF8047B70470000014054
:10166000000401400004004000080040000C00405D
:10167000001000400014004080B483B000AF7860D8
:1016800039607B683A685A620C37BD465DF8047B66
:10169000704700BF80B483B000AF78600B46FB702A
:1016A000FB78002B08D07B681B889BB243F080033B
:1016B0009AB27B681A8007E07B681B889BB223F094
:1016C00080039AB27B681A800C37BD465DF8047BB4
:1016D000704700BF80B483B000AF78600B46FB70EA
:1016E000FB78002B08D07B681B889BB243F001037A
:1016F0009AB27B681A8007E07B681B889BB223F054
:1017000001039AB27B681A800C37BD465DF8047BF2
:10171000704700BF80B485B000AF786039600023A7
:101720007B810023FB810023BB817B681B8C9BB2E8
:1017300023F001039AB27B681A847B681B8CFB81BF
:101740007B689B88BB817B681B8B7B817B8923F0BB
:1017500070037B817B8923F003037B813B681A88BC
:101760007B8913437B81FB8923F00203FB813B6868
:101770009A89FB891343FB813B685A88FB89134391
:10178000FB817B681E4A934203D07B681D4A9342CB
:1017900023D1FB8923F00803FB813B68DA89FB89AD
:1017A0001343FB81FB8923F00403FB813B689A8888
:1017B000FB891343FB81BB8923F48073BB81BB8905
:1017C00023F40073BB813B681A8ABB891343BB8136
:1017D0003B685A8ABB891343BB817B68BA899A806C
:1017E0007B687A891A833B689A687B685A637B684E
:1017F000FA891A841437BD465DF8047B704700BF30
:10180000000001400004014080B485B000AF786062
:10181000396000237B810023FB810023BB817B682F
:101820001B8C9BB223F010039AB27B681A847B68EE
:101830001B8CFB817B689B88BB817B681B8B7B81BE
:101840007B8923F4E0437B817B8923F440737B8194
:101850003B681B881B029AB27B8913437B81FB89FF
:1018600023F02003FB813B689B891B019AB2FB8913
:101870001343FB813B685B881B019AB2FB891343CE
:10188000FB817B68224A934203D07B68214A9342C2
:101890002BD1FB8923F08003FB813B68DB891B0193
:1018A0009AB2FB891343FB81FB8923F04003FB8140
:1018B0003B689B881B019AB2FB891343FB81BB8960
:1018C00023F48063BB81BB8923F40063BB813B6845
:1018D0001B8A9B009AB2BB891343BB813B685B8A1E
:1018E0009B009AB2BB891343BB817B68BA899A80FB
:1018F0007B687A891A833B689A687B689A637B68FD
:10190000FA891A841437BD465DF8047B704700BF1E
:10191000000001400004014080B485B000AF786051
:10192000396000237B810023FB810023BB817B681E
:101930001B8C9BB223F480739AB27B681A847B68F9
:101940001B8CFB817B689B88BB817B689B8B7B812D
:101950007B8923F070037B817B8923F003037B81E8
:101960003B681A887B8913437B81FB8923F40073CE
:10197000FB813B689B891B029AB2FB891343FB8165
:101980003B685B881B029AB2FB891343FB817B682F
:10199000224A934203D07B68214A93422BD1FB8990
:1019A00023F40063FB813B68DB891B029AB2FB894D
:1019B0001343FB81FB8923F48063FB813B689B8895
:1019C0001B029AB2FB891343FB81BB8923F480532A
:1019D000BB81BB8923F40053BB813B681B8A1B017D
:1019E0009AB2BB891343BB813B685B8A1B019AB2E5
:1019F000BB891343BB817B68BA899A807B687A89EB
:101A00009A833B689A687B68DA637B68FA891A84F0
:101A10001437BD465DF8047B704700BF00000140ED
:101A20000004014080B485B000AF786039600023C5
:101A3000BB8100237B810023FB817B681B8C9BB2D5
:101A400023F480539AB27B681A847B681B8C7B8159
:101A50007B689B88FB817B689B8BBB81BB8923F464
:101A6000E043BB81BB8923F44073BB813B681B8887
:101A70001B029AB2BB891343BB817B8923F40053B9
:101A80007B813B689B891B039AB27B8913437B81D3
:101A90003B685B881B039AB27B8913437B817B681D
:101AA000114A934203D07B68104A93420AD1FB89C2
:101AB00023F48043FB813B681B8A9B019AB2FB891C
:101AC0001343FB817B68FA899A807B68BA899A8381
:101AD0003B689A687B681A647B687A891A84143731
:101AE000BD465DF8047B70470000014000040140E2
:101AF00080B485B000AF78600B467B800023FB810B
:101B00007B681B8BFB81FB8923F00803FB81FA892F
:101B10007B881343FB817B68FA891A831437BD469F
:101B20005DF8047B704700BF80B485B000AF78607B
:101B30000B467B800023FB817B681B8BFB81FB8931
:101B400023F40063FB817B881B029AB2FB89134359
:101B5000FB817B68FA891A831437BD465DF8047BE4
:101B6000704700BF80B485B000AF78600B467B80C3
:101B70000023FB817B689B8BFB81FB8923F008039F
:101B8000FB81FA897B881343FB817B68FA899A83FE
:101B90001437BD465DF8047B704700BF80B485B044
:101BA00000AF78600B467B800023FB817B689B8BBA
:101BB000FB81FB8923F40063FB817B881B029AB2C3
:101BC000FB891343FB817B68FA899A831437BD46EE
:101BD0005DF8047B704700BF80B582B000AF7860CD
:101BE00039603B681B88002B0FD13B6859883B68E4
:101BF0009A883B681B89786800F01AF93B68DB8893
:101C00007868194600F06CF836E03B681B88042BB6
:101C10000FD13B6859883B689A883B681B89786874
:101C200000F048F93B68DB887868194600F074F8E2
:101C300022E03B681B88082B0FD13B6859883B6822
:101C40009A883B681B89786800F080F93B68DB88DC
:101C50007868194600F07EF80EE03B6859883B68CA
:101C60009A883B681B89786800F0B8F93B68DB8884
:101C70007868194600F08AF80837BD4680BD00BF75
:101C800080B483B000AF78607B685B6B18460C371C
:101C9000BD465DF8047B704780B483B000AF7860C8
:101CA0007B689B6B18460C37BD465DF8047B70471C
:101CB00080B483B000AF78607B68DB6B18460C376C
:101CC000BD465DF8047B704780B483B000AF786098
:101CD0007B681B6C18460C37BD465DF8047B70476B
:101CE00080B483B000AF78600B467B807B681B8B31
:101CF0009BB223F00C039AB27B681A837B681B8B20
:101D00009AB27B8813439AB27B681A830C37BD461C
:101D10005DF8047B704700BF80B483B000AF78608B
:101D20000B467B807B681B8B9BB223F440639AB28B
:101D30007B681A837B681B8B9AB27B881B029BB2E1
:101D400013439AB27B681A830C37BD465DF8047B57
:101D5000704700BF80B483B000AF78600B467B80D3
:101D60007B689B8B9BB223F00C039AB27B689A83AF
:101D70007B689B8B9AB27B8813439AB27B689A8369
:101D80000C37BD465DF8047B704700BF80B483B05C
:101D900000AF78600B467B807B689B8B9BB223F403
:101DA00040639AB27B689A837B689B8B9AB27B88EC
:101DB0001B029BB213439AB27B689A830C37BD46D1
:101DC0005DF8047B704700BF80B483B000AF7860DB
:101DD0000B467B8013467B707B78002B08D07B689A
:101DE0009B899AB27B8813439AB27B689A8109E0F7
:101DF0007B689B899AB27B88DB439BB213409AB283
:101E00007B689A810C37BD465DF8047B704700BF44
:101E100080B483B000AF78600B467B807B88DB4367
:101E20009AB27B681A820C37BD465DF8047B704716
:101E300080B487B000AFF860084611461A460346E2
:101E40007B810B463B811346FB800023FB820023F2
:101E5000BB82FB681B8C9BB223F001039AB2FB6828
:101E60001A84FB681B8BFB82FB681B8CBB82FB8A82
:101E700023F0F303FB82FB881B019AB23B891343D7
:101E80009AB2FB8A1343FB82BB8A23F00A03BB820C
:101E90007A89BB8A13439BB243F00103BB82FB6880
:101EA000FA8A1A83FB68BA8A1A841C37BD465DF821
:101EB000047B704780B487B000AFF86008461146D5
:101EC0001A4603467B810B463B811346FB80002369
:101ED000FB820023BB8200237B82FB681B8C9BB2AE
:101EE00023F010039AB2FB681A84FB681B8BFB82F9
:101EF000FB681B8CBB827B891B017B82FB8A23F4E2
:101F000040731B051B0DFB82FB881B039AB2FB8AE7
:101F10001343FB823B891B029AB2FB8A1343FB8269
:101F2000BB8A23F0A003BB827A8ABB8A13439BB28D
:101F300043F01003BB82FB68FA8A1A83FB68BA8AF3
:101F40001A841C37BD465DF8047B704780B487B0A7
:101F500000AFF860084611461A4603467B810B46DF
:101F60003B811346FB800023FB820023BB820023BE
:101F70007B82FB681B8C9BB223F480739AB2FB6854
:101F80001A84FB689B8BFB82FB681B8CBB827B8962
:101F90001B027B82FB8A23F0F303FB82FB881B017D
:101FA0009AB23B8913439AB2FB8A1343FB82BB8AE2
:101FB00023F42063BB827A8ABB8A13439BB243F427
:101FC0008073BB82FB68FA8A9A83FB68BA8A1A8498
:101FD0001C37BD465DF8047B704700BF80B487B0F6
:101FE00000AFF860084611461A4603467B810B464F
:101FF0003B811346FB800023FB820023BB8200232E
:102000007B82FB681B8C9BB223F480539AB2FB68E3
:102010001A84FB689B8BFB82FB681B8CBB827B89D1
:102020001B037B82FB8A23F440731B051B0DFB8281
:102030003B891B029AB2FB8A1343FB82FB881B037A
:102040009AB2FB8A1343FB82BB8A23F400535B04DE
:102050005B0CBB827A8ABB8A13439BB243F48053E6
:10206000BB82FB68FA8A9A83FB68BA8A1A841C3797
:10207000BD465DF8047B704747583A202564202010
:1020800020202020202020202000000047593A2036
:102090002564202020202020202020202000000057
:1020A000475A3A2025640D0A0000000041583A20A2
:1020B0002564202020202020202020202000000037
:1020C00041593A2025642020202020202020202053
:1020D00020000000415A3A2025640D0A000000004B
:1020E0004D583A2025642020202020202020202028
:1020F000200000004D593A20256420202020202077
:1021000020202020200000004D5A3A2025640D0A8E
:102110000000000042503A2025642020202020208A
:10212000202020202000000042543A2025640D0A7F
:10213000000000004F64637A7974793A200D000042
:10214000737464696F2E633A20696E63726561739C
:1021500065204D41585F535452494E475F53495A89
:04216000450A0D001F
:10216400000000000000000001000000000000006A
:10217400000000000000000000000000000000005B
:10218400000000000000000000000000000000004B
:10219400000000000000000000000000000000003B
:1021A400000000000000000000000000000000002B
:102584000000000000000000000000200000000027
:10259400007A030A000000000000000001020304A6
:0425A4000607080915
:0400000508000000EF
:00000001FF
