:020000040800F2
:10000000B80C0020F1010008EF010008AB11000856
:10001000EF010008EF010008EF01000800000000F8
:10002000000000000000000000000000EF010008D8
:10003000EF01000800000000EF010008EF010008D8
:10004000EF010008EF010008EF010008EF010008D0
:10005000EF010008EF01000879090008EF0100082E
:10006000EF010008EF010008EF010008EF010008B0
:10007000EF010008EF010008EF010008EF010008A0
:10008000EF010008EF010008EF010008EF01000890
:10009000EF010008EF010008EF010008EF01000880
:1000A000EF010008EF010008EF010008EF01000870
:1000B000EF010008EF010008EF010008EF01000860
:1000C000EF010008EF010008EF010008EF01000850
:1000D000EF010008EF010008EF010008EF01000840
:1000E000510A0008EF010008EF010008EF010008C5
:1000F000EF010008EF010008EF010008EF01000820
:10010000EF010008EF010008EF010008EF0100080F
:10011000EF010008EF010008EF010008EF010008FF
:10012000EF010008EF010008EF010008EF010008EF
:10013000EF010008EF010008EF010008EF010008DF
:10014000EF010008EF010008EF010008EF010008CF
:10015000EF010008EF010008EF010008EF010008BF
:10016000EF010008EF010008EF010008EF010008AF
:10017000EF010008EF010008EF010008EF0100089F
:10018000EF010008EF01000810B50C4B19784A1C6C
:10019000D2B219449C1848700E2A4FF000011A7010
:1001A000617002D80A2800D038B9197004200449B7
:1001B0000022BDE8104000F0EFBF10BD6804002031
:1001C0006904002001F0030301F0FC0101F180410A
:1001D00001F59C3110B59B008C680F229A4024EAEF
:1001E00002028A608A68984002438A6010BDFEE776
:1001F00008B50F4A0F4B10498B4204D252F8041F26
:1002000043F8041BF7E70D480D494FF00002884200
:10021000B8BF40F8042BFADBDFF82800016841F48E
:100220007001016000F0CCFFBDE8084000F048BC60
:100230000C2A000800000020680400206804002048
:10024000B404002088ED00E007B50820012100F08B
:10025000A7FD4FF20403009301238DF8043003231C
:100260008DF805300548002369468DF806308DF875
:10027000073000F03DFF03B05DF804FB000C0240C6
:1002800007B50120014600F08BFD012300930023F8
:100290008DF804308DF806300548022369468DF844
:1002A00007308DF8053000F023FF03B05DF804FB44
:1002B0000000024030B54FF4001087B0012100F07B
:1002C0007BFD1F4D0220012100F06AFD4FF41073E9
:1002D000012400932846022369468DF804308DF8E6
:1002E00005308DF806408DF8074000F001FF2846E4
:1002F0000621042200F03EFF28460921042200F0D6
:1003000039FF4CF250330293A5F5D83500234BF654
:10031000FF72ADF80C30ADF81030ADF81230284651
:100320004FF4804302A9ADF80E20ADF8143000F070
:10033000C3FF2846214601F029F807B030BD00BFB1
:100340000004024070B504460E46154622B1204610
:10035000012101F027F807E020464FF4003101F0B9
:1003600061F80028F8D1F2E720460D4901F04CF879
:100370000028F9D0204631462A4601F02BF835B93D
:100380002046084901F040F80028F9D070BD012D41
:1003900005D12046044901F037F80028F9D070BD96
:1003A00001000300820007000200030010B50446AC
:1003B00001F025F82046034901F026F80028F9D07D
:1003C00010BD00BF8400070010B50121044601F0F4
:1003D0000AF82046044901F017F80028F9D0204611
:1003E000BDE8104001F00DB84000030010B5002139
:1003F000044600F0F8FF2046012100F0DFFF204610
:10040000044901F001F80028F9D02046BDE8104069
:1004100000F0F7BF40000300012100F0CFBF000053
:1004200038B51A4C1A4D00222046D721FFF78AFF13
:1004300020462978FFF7BAFF20460021FFF7B6FFD4
:100440002046FFF7E9FF00222046D721FFF77AFF79
:1004500020462979FFF7AAFF20461021FFF7A6FFC3
:100460002046FFF7D9FF20460022D721FFF76AFF79
:100470002046297AFFF79AFF20466F21FFF796FF63
:100480002046BDE83840FFF7C7BF00BF005400401A
:100490000000002010B5294C002220463B21FFF728
:1004A00051FF20462021FFF781FF20465721FFF70B
:1004B0007DFF2046FFF7B0FF002220463B21FFF7DB
:1004C00041FF20462121FFF771FF20460821FFF759
:1004D0006DFF2046FFF7A0FF002220463B21FFF7DB
:1004E00031FF20462421FFF761FF20466421FFF7FA
:1004F0005DFF2046FFF790FF002220463B21FFF7DB
:1005000021FF20462521FFF751FF20462021FFF73C
:100510004DFF2046FFF780FF204600223B21FFF7DA
:1005200011FF20462621FFF741FF20460021FFF75B
:100530003DFF2046BDE81040FFF76EBF005400406D
:1005400010B5094C00222046BB21FFF7FBFE2046D8
:100550002021FFF72BFF2046B021FFF727FF204681
:10056000BDE81040FFF758BF005400402DE9F843A4
:1005700000223648D721FFF7E5FE3448A821FFF7CF
:1005800015FFD62101223148FFF7DCFE2F48FFF787
:100590001BFF81462D48FFF717FF49EA00201FFA8D
:1005A00080F92A48FFF710FF80462848FFF70CFF24
:1005B00048EA00201FFA80F82448FFF705FF0746A5
:1005C0002248FFF713FF47EA002087B21F48FFF7D2
:1005D00023FF1FFA89F619F4004F18BFA6F58036DD
:1005E00007EE906A1FFA88F518F4004F18BFA5F5BA
:1005F0008035F8EEE77A3B04154B9FED167AC3ED94
:10060000007AD3ED007AC7EE877ABCB248BFA4F572
:100610008034C3ED007A07EE905AF8EEE77AC3ED26
:10062000017AD3ED017AC7EE877AC3ED017A07EE3E
:10063000904AF8EEE77AC3ED027AD3ED027AC7EE7C
:10064000877AC3ED027ABDE8F88300BF005400400A
:1006500098040020000083422DE9F8430022364828
:100660003B21FFF76FFE3448A821FFF79FFE3A2198
:1006700001223148FFF766FE2F48FFF7A5FE8146AD
:100680002D48FFF7A1FE49EA00201FFA80F92A4809
:10069000FFF79AFE80462848FFF796FE48EA0020BA
:1006A0001FFA80F82448FFF78FFE07462248FFF71D
:1006B0009DFE47EA002087B21F48FFF7ADFE1FFAF4
:1006C00089F619F4004F18BFA6F5803607EE906A38
:1006D0001FFA88F518F4004F18BFA5F58035F8EE1D
:1006E000E77A3B04154B9FED167AC3ED007AD3ED04
:1006F000007A67EE877ABCB2C3ED007A07EE905AB3
:10070000F8EEE77A48BFA4F58034C3ED017AD3ED63
:10071000017A67EE877AC3ED017A07EE904AF8EE28
:10072000E77AC3ED027AD3ED027A67EE877AC3EDFA
:10073000027ABDE8F88300BF00540040A404002002
:10074000000000392DE9F341DFF884800220012107
:1007500000F032FB0620012100F022FB0224C0231E
:100760000326002701254046694600938DF8056061
:100770008DF804408DF806708DF8075000F0B8FC35
:1007800000968DF80560114E8DF80440304669469C
:100790008DF806708DF8075000F0AAFC40462246FE
:1007A000062100F0E7FC40462246072100F0E2FC6B
:1007B00030463946224600F0DDFC304629462246C6
:1007C00000F0D8FC02B0BDE8F08100BF0004024098
:1007D0000008024070B5284B284C294A1B68B3FB1F
:1007E000F2F388B00025013B0190694620460126BE
:1007F000ADF80030ADF80850ADF8025000F0B2FE90
:100800006023204603A9ADF80C30ADF80E600595C5
:10081000ADF8185000F008FF2046082100F0F6FF60
:10082000204603A9ADF80E60059500F035FF20467F
:10083000082100F0F3FF204603A9ADF80E600595EE
:1008400000F06EFF2046082100F0F2FF204603A9C9
:10085000ADF80E60059500F0A5FF2046082100F0D8
:10086000EFFF2046314600F0C6FE2046314600F03C
:10087000CEFE08B070BD00BF500400200004004050
:10088000C0D4010070B5082086B0012100F088FABC
:100890004FF48040012100F09BFA0024012503263B
:1008A00002A915488DF80C408DF80E4002958DF880
:1008B0000F508DF80D6000F01BFC21463046FFF70D
:1008C00081FC10230DEB03008DF8153004958DF895
:1008D00016508DF8144000F0BFFD062301A88DF8D6
:1008E00004308DF805408DF806408DF8075000F073
:1008F00003FE06B070BD00BF000C024070B50220C0
:1009000086B0012100F04CFA4FF48040012100F044
:100910005FFA0124002503234FF4805602A91548ED
:100920008DF80D308DF80C508DF80E5002968DF824
:100930000F4000F0DDFB0C212046FFF743FC1023A5
:100940000DEB03008DF8153004968DF816408DF8E8
:10095000145000F081FD282301A88DF804308DF893
:1009600005508DF806408DF8074000F0C5FD06B033
:1009700070BD00BF0004024038B5012000F0A8FDA2
:10098000002859D02D4C2368F3B92D48012100F0DF
:10099000E7FB48B163683BB94FF0804000F029FEA7
:1009A000284B18600123A3602548012100F0D8FBE3
:1009B00050B9A36843B14FF0804000F01AFE214BBC
:1009C00058601E4B01225A60A2681C4B002A2ED090
:1009D0005A68002A2BD001221A6000229A605A60BD
:1009E000184B194D58681968421A8842B8BF02F26C
:1009F000E9329A601B8912482B804FF4805100F035
:100A0000B5FBE3688BB10E484FF4005100F0AEFB2C
:100A10002A880E4B92B25A632A8892B29A632A8825
:100A200092B2DA632A8892B21A640023236001200A
:100A3000BDE8384000F05ABD38BD00BF7C0400203E
:100A4000000C02408C040020B00400200004004090
:100A500008B54FF4805000F03BFD28B14FF48050B2
:100A6000BDE8084000F042BD08BD00001FB50120F0
:100A7000014600F0A1F901A800F0B2FD0E4B0F4AAB
:100A80001B68B3FBF2F3013BADF804304FF47A730B
:100A9000029301A900234FF08040ADF80C30ADF86F
:100AA000063000F05FFD4FF08040012100F0AFFD07
:100AB00005B05DF804FB00BF50040020A0860100D3
:100AC0002DE9F04F2DED048B85B000F079FBFFF799
:100AD000BBFBFFF7D5FBFFF7EDFBFFF7A1FCFFF733
:100AE000D9FCFFF72DFDFFF72DFE6420FFF772FE06
:100AF0007D4B32225A639A63DA631A64FFF7C2FEAF
:100B0000FFF7FCFEFFF7B2FF78484FF4004100F01A
:100B10002DFB774800F0E4FA0024002526462F46F6
:100B2000A046A9464FF0000A7248012100F018FBC8
:100B300030B3714BBAF1000F0ED14FF0010A6B4880
:100B4000C3F80CA04FF4004100F012FB67484FF4CB
:100B5000804100F00BFB13E064484FF400414FF07C
:100B6000000AC3F80CA000F001FB60484FF480417C
:100B700000F0FEFA5C4B32225A639A63DA631A641D
:100B8000DFF88CB1FFF7F2FCFFF766FDDBED008AC2
:100B90005A4B00224046494601F0B4FBB6EE008AAB
:100BA00068EE887A8046894617EE900A01F056FB77
:100BB00042464B4601F0F4F9DBED018A4F4B00222F
:100BC000804689463046394601F09CFB68EE887ABB
:100BD00006460F4617EE900A01F040FB32463B46B0
:100BE00001F0DEF9DBED028A444B06460F46002297
:100BF0002046294601F086FB68EE887A04460D46B9
:100C000017EE900A01F02AFB22462B4601F0C8F9A4
:100C100007F1004304460D460193009645EC114B45
:100C20009DED000B00F016FE32463B46304639463D
:100C3000B0EE408AF0EE608A01F064FB2246CDE916
:100C400002012B462046294601F05CFB02460B467A
:100C5000DDE9020101F0A4F901F016FE00EE100A30
:100C600000F0FAFD10EE100A01F0F8FA49EC108BD2
:100C700041EC110B00F0EEFD0022214BB0EE409A4A
:100C8000F0EE609A51EC180B01F03CFB14A3D3E991
:100C9000002301F061FC00221A4B01F033FB01F04C
:100CA000CBFD0146184800F00DFA0022144B51EC20
:100CB000190B01F027FB0AA3D3E9002301F04CFC38
:100CC000104B002201F01EFB01F0B6FD01460F485B
:100CD00000F0F8F94CF25033013BFDD124E700BF9E
:100CE000182D4454FB21094000040040000C024030
:100CF0007C290008000002407C0400200000E03F46
:100D000000806640000059408729000893290008A8
:100D1000A4040020AFF300801D4A936803F00C0385
:100D2000042B10B503D0082B03D01A4B18E01A4B34
:100D300016E05168536811F4800F03F03F035168C7
:100D400014BF154A134AB2FBF3F3114A5268C2F3B7
:100D50000142C1F3881101324B435200B3FBF2F35D
:100D60000B4A036093680D49C3F30313CC5C03681B
:100D7000E34043609468C4F382240C5D23FA04F4D6
:100D800084609268C2F342328A5CD340C36010BD73
:100D9000003802400024F40000127A000C00002009
:100DA000044B1A6B09B1104301E022EA00001863FA
:100DB000704700BF00380240044B1A6C09B1104361
:100DC00001E022EA00001864704700BF00380240CA
:100DD000044B5A6C09B1104301E022EA0000586448
:100DE000704700BF0038024010B50139034611F8C2
:100DF000012F1C1A12B103F8012BF8E7204610BD91
:100E0000092B70B502F1FF3205460E461C4601D88B
:100E1000034606E00A23B4FBF3F3FFF7F1FF2918BA
:100E200008E0002AA3EB0500194603DD03F8016B77
:100E3000013AF6E70A22B4FBF2F302FB1343303324
:100E40000B70013070BDF8B583EAE374A4EBE37472
:100E5000092C164605460F4602F1FF320AD9002B2F
:100E60004FF00A03B4FBF3F3B8BF5B42FFF7EBFFAD
:100E70002A1815E0002BB8BFB21E0138511E091AFE
:100E80002944002902DD00F8017FF7E7002B22EA60
:100E9000E27005EB0002BFBF2D232B54013201305D
:100EA0000A21B4FBF1F301FB13433033137001301B
:100EB000F8BDF7B5089C5FEA141E05460F461E46AE
:100EC00002F1FF3201D1034605E0CDF800E0FFF763
:100ED000F0FF291808E0002AA3EB0500194603DDFE
:100EE00003F8017B013AF6E704F00F03092B01D860
:100EF000303303E00EB1373300E0573301300B706D
:100F000003B0F0BD2DE9F3410E46044608B10021BF
:100F100001700025117831B9B5424FF0000366D257
:100F20002370284669E0B542F6D2252902D0013265
:100F3000217004E05178252904D121700232013555
:100F40000134E7E7302916BF501C901C20210022F5
:100F50000778A7F1300EBEF1090F804600F10100BD
:100F600007D802EB820207EB4202303A02F0FF029E
:100F7000EEE7A818B04284BF721BD2B2692F18D016
:100F80000BD8632F2AD0642F13D0582F33D11F1DB5
:100F90001B680093204601231DE0752F0FD0782F8A
:100FA00014D0732F27D1204619681F1DFFF71CFF8F
:100FB0000AE01F1D20461B68FFF745FF04E01F1DC8
:100FC00020461B68FFF71CFF3B460BE01F1D1B68FC
:100FD000009320460023FFF76CFFF5E71A682270A4
:100FE0000433012008F101020444054492E704F8A7
:100FF000013C681E01E04FF0FF3002B0BDE8F08117
:1010000010B50C46134664212246BDE81040FFF798
:1010100079BF0000084B1B689A68914210B50446DE
:1010200002D0DB68994204D1E0B2FFF7ADF8204668
:1010300010BD4FF0FF3010BD2000002070B50546F8
:101040000E460446601B14F8013B2BB1184631468E
:10105000FFF7E0FF431CF5D170BD0000F0B5124B67
:10106000A3B006468E466C4603F1200C6F46186806
:101070005968254603C5083363452C46F7D11868DF
:101080002860714609A8FFF7BBFF632806DD074B00
:101090001B683846D968FFF7D1FFFEE709A831463B
:1010A000FFF7CCFF23B0F0BD9F29000820000020EF
:1010B0000A4603490968034688681946FFF7CEBF08
:1010C000200000200FB407B504A951F8040B0191CA
:1010D000FFF7EEFF03B05DF804EB04B070470000CB
:1010E000024B1B689968FFF7A9BF00BF20000020D2
:1010F000F0B50E6800220123934003EA060E9E45D8
:101100002AD1550003230468AB40DB431C40046034
:101110000C79076804FA05FC013C4CEA0707012C2E
:10112000076011D884684F791C4084608468AF40A0
:1011300027438760446824EA0E0444608C7947683A
:101140009440A4B23C434460C4682340C360CB795C
:10115000C468AB402343C3600132102ACBD1F0BD39
:101160000369194214BF01200020704701837047B2
:101170004183704701F00703C90800EB810010B5F7
:101180009B00046A0F21994024EA01010162016A6F
:101190009A401143016210BDABBE01E000207047D0
:1011A000002A00D010600120704706980188034A89
:1011B000914202D1043006907047FEE7ABBE0000BA
:1011C000374AD2F8883043F47003C2F88830354B80
:1011D0001A68002142F001021A6099601A6822F030
:1011E000847222F480321A602F4A5A601A6882B0E0
:1011F00022F480221A60D960009101911A6842F4A9
:1012000080321A60274B1A6802F400320192009A69
:1012100001320092019A1AB9009AB2F5A06FF1D189
:101220001B6813F4003318BF01230193019B012BAA
:1012300005D01B4B4FF000629A6002B07047194B0B
:101240001A491A6C42F080521A640A6842F48042C9
:101250000A609A689A609A6842F400429A609A68B2
:1012600042F4A0529A60124A5A601A6842F08072A0
:101270001A6019680B4A8901FBD50E4B40F20561D3
:101280001960936823F003039360936843F00203AB
:101290009360044B9B6803F00C03082BF9D1C8E75B
:1012A00000ED00E0003802401030002400700040E3
:1012B00008544007003C02407FB5868826F03F0670
:1012C0000446360468460D46360CFFF725FD029AA3
:1012D0002C48B2FBF0F081B20E43A68023882A4E40
:1012E00023F001031B041B0C23802B68B3420AD894
:1012F0005B000131B2FBF3F39BB2032B89B298BFC1
:101300000423218423E0EE884BF6FF718E421BBF3D
:1013100019214B4303EB4303B2FBF3F315BF9BB21D
:10132000B2FBF3F343F480439BB2C3F30B020AB95D
:1013300043F001034FF4967101FB00F24FF47A7110
:1013400092FBF1F2013292B243F400432284A38370
:1013500023886989AA889BB243F0010323802388EC
:1013600023F4816323F002031B040A431B0C134381
:101370009BB223802A89AB8913439BB2238104B09B
:1013800070BD00BF40420F00A0860100038819B164
:101390009BB243F0010303E023F001031B041B0C89
:1013A00003807047038819B19BB243F4807303E054
:1013B00023F480731B041B0C03807047038819B14E
:1013C0009BB243F4007303E023F400731B041B0C73
:1013D0000380704712B141F0010101E001F0FE010C
:1013E00089B201827047038819B19BB243F48063CC
:1013F00003E023F480631B041B0C0380704701820D
:101400007047008AC0B27047838A9AB2038B10B5C6
:1014100042EA034321F07F4404EA0300431A58429E
:10142000584110BD82B00023009301930B0F01902F
:101430000093009B21F07F4113B1019B143302E024
:10144000019B090C18330193019B1B68194214BFBF
:101450000120002002B0704782790168037970B5DD
:10146000002A29D0194A1568CE43354015605468C2
:1014700003F1804303F59E33344054601C682143DC
:10148000196003689468DD432C409460D16829405A
:10149000D160417910290BBF916801F18042194355
:1014A00002F59E3205BF9160D16811680B4316BFEB
:1014B0000B43D360136070BD03F1804303F59E338B
:1014C0001A6822EA0101196070BD00BF003C0140AA
:1014D000054B1A685B69034004D0104214BF012019
:1014E0000020704718467047003C0140014B58618E
:1014F000704700BF003C0140C278037810B512B3BA
:10150000164AD1684278C943C1F30221C1F10404EB
:10151000E4B2A240D4B20F220A4181780A402243A9
:1015200003F1604303F561431201D2B283F8002353
:1015300003780122590903F01F0302FA03F3084A52
:1015400042F8213010BD5A09012103F01F039940D0
:1015500002F12003024A42F8231010BD00ED00E022
:1015600000E100E01C4A038890429BB212D002F5D1
:10157000806290420ED0B0F1804F0BD0A2F5803245
:10158000904207D002F58062904203D002F580625B
:10159000904203D14A8823F0700313430F4A9042CC
:1015A00008D002F5806290421FBF23F440730A897D
:1015B0009BB2134303804B68C3620B880385064BC1
:1015C000984203D003F58063984201D18B7A038659
:1015D00001238382704700BF0000014000100040DB
:1015E0004FF0FF3343600023038003814380837205
:1015F0007047406A7047038819B19BB243F080037B
:1016000003E023F080031B041B0C03807047038856
:1016100019B19BB243F0010303E023F001031B0463
:101620001B0C038070470000038C23F001031B0494
:101630001B0C0384038C70B58488028B0E8822F007
:1016400073021204120C23F0020516434B888A8998
:101650002D0413430F4A2D0C2B439042A4B29BB28E
:1016600003D002F5806290420ED1CA894D8A23F0E0
:10167000080313438A8823F0040313430A8A24F4DB
:10168000407415432C43A4B28A6884800683426365
:10169000038470BD00000140038C23F010031B0481
:1016A0001B0C0384038C30B58588028B0C8822F4D4
:1016B000E6421204120C42EA042223F0200394B200
:1016C0001B048A891B0C43EA02134A8843EA02136B
:1016D000124A9042ADB29BB203D002F580629042B2
:1016E00015D123F08003CA899BB243EA02124FF658
:1016F000BF7313408A8843EA02130A8A25F44065BF
:1017000045EA82054A8A45EA82059BB2ADB28A68FB
:10171000858004838263038430BD00BF00000140E4
:10172000038C23F480731B041B0C0384038C30B5DF
:101730008488828B0D8822F073021204120C23F429
:10174000007315431B048A891B0C43EA02234A8851
:1017500043EA0223124A9042A4B29BB203D002F59C
:101760008062904215D123F40063CA899BB243EA98
:1017700002224FF6FF3313408A8843EA02230A8A83
:1017800024F4405444EA02144A8A44EA02149BB204
:10179000A4B28A6884808583C263038430BD00BF9D
:1017A00000000140038C23F480531B041B0C0384B2
:1017B000038C30B58488828B0D8822F4E6421204B3
:1017C000120C23F4005342EA05221B048D891B0CE2
:1017D00043EA05334D8843EA05330B4DA842A4B2D2
:1017E00092B29BB203D005F58065A84205D10D8A5F
:1017F00024F4804444EA8514A4B2848082838A68F5
:101800000264038430BD00BF00000140038B23F05D
:1018100008031B041B0C194301837047038B23F43B
:1018200000631B041B0C43EA012189B2018370474A
:10183000838B23F008031B041B0C1943818370471F
:10184000838B23F400631B041B0C43EA012189B240
:101850008183704700F05CB810B52DED028B2A4CE7
:101860008AB0F0EE408A00F067F994F90030013355
:10187000B0EE408A09D0B0EE680A00F06FFB20B1EC
:10188000F5EEC08AF1EE10FA05D4B0EE480A0AB0BF
:10189000BDEC028B10BD01231C4A009318EE900A88
:1018A00000230192089300F0D9FC2478CDE90401CB
:1018B000CDE902019CB900220023CDE90623684648
:1018C00000F04AFBA8B1089BC3B9DDE9060100F0AE
:1018D000DBFF00EE100A0AB0BDEC028B10BD002049
:1018E000002102460B4600F037FE022CCDE906012E
:1018F000E5D101F019F821230360E4E701F014F8C1
:10190000089B0360E1E700BF64040020C4290008CD
:101910002DE9F04757EC116B7342334327F0004C2D
:1019200083484CEAD373834211EE102A394655ECB2
:10193000104B51D86342234325F0004A4AEAD3733F
:10194000834210EE10EAA94646D807F1404303F55A
:10195000801333435CD04FEAA77808F002085AEAB4
:10196000040348EAD57841D05CEA020349D0704BC1
:101970009C455BD06E4B9A4543D0CCEB0A0C4FEAAA
:101980002C5CBCF13C0F4DDC0029C0F28580324656
:101990003B462046294600F0DFFD41EC100B00F0ED
:1019A000D3FA00F01DF951EC100BB8F1010F6DD016
:1019B000B8F1020F5AD0B8F1000F53D046A3D3E9C3
:1019C000002300F0EBFA46A3D3E9002300F0E6FA87
:1019D00041EC100BBDE8F0873046394622462B46D5
:1019E00000F0DEFA41EC100BBDE8F087B8F1030F10
:1019F000BAD8DFE808F0151502119FED390BBDE8E4
:101A0000F087B9F1000F29DB9FED370BBDE8F087B8
:101A1000BDE8F04700F0E4B89FED350BBDE8F08776
:101A2000BDE8F08730A1D1E90001BEE7E2453AD038
:101A3000B8F1030F9ED801A353F828F04D1A0008FF
:101A4000551A0008FB190008191A00089FED2A0B07
:101A5000BDE8F0879FED2A0BBDE8F0879FED2A0BCC
:101A6000BDE8F08741EC100BBDE8F0871AA3D3E97D
:101A7000002300F093FA02460B4619A1D1E90001B8
:101A800000F08CFA41EC100BBDE8F08701F1004149
:101A900041EC100BBDE8F0871CF13C0FBFF677AFAF
:101AA0000020002181E7B8F1030FAAD8DFE808F091
:101AB000020E0A069FED160BBDE8F0879FED160B90
:101AC000BDE8F0879FED160BBDE8F0879FED160B84
:101AD000BDE8F087AFF30080075C143326A6A13C75
:101AE000182D4454FB210940182D4454FB21F93F83
:101AF000182D4454FB2109C0000000000000000024
:101B00000000000000000080182D4454FB21F9BFA4
:101B1000182D4454FB21E93FD221337F7CD902C0E8
:101B2000D221337F7CD90240182D4454FB21E9BFD8
:101B30000000F07FAFF3008010EE103A23F0004277
:101B4000B2F1FF4F70B430D26AB3002B3DDBB2F577
:101B5000000F4FEAE3512CD3A1F17F02C3F3160328
:101B6000D10743F4000348BF5B00002456105B001C
:101B7000254619214FF08072A818984202DC1B1AE2
:101B80008518144401394FEA43034FEA5202F3D156
:101B900013B104F001031C44641004F17C5404EB01
:101BA000C65300EE103A70BC7047A0EE000A70BC3D
:101BB000704713F400020DD15B00180202F101021C
:101BC000FAD5C2F101021144C6E730EE400A80EEB8
:101BD000000AE8E701221144BEE700BF0000000050
:101BE0002DE9F84F55EC104BCD4B25F000469E42A9
:101BF000AB4610DDCB4B9E4200F3B28000F0AD80CF
:101C0000BBF1000F40F3F680A9A5D5E9004545ECEE
:101C1000104BBDE8F88FC44B9E4200F3C080A3F187
:101C2000DE739E4240F3A8804FF0FF3A22462B46D7
:101C30002046294600F066FB02460B468046894650
:101C400000F060FB9CA3D3E9002306460F4600F09A
:101C500059FB9BA3D3E9002300F0A2F932463B468F
:101C600000F050FB98A3D3E9002300F099F9324625
:101C70003B4600F047FB96A3D3E9002300F090F920
:101C800032463B4600F03EFB93A3D3E9002300F02D
:101C900087F932463B4600F035FB91A3D3E9002398
:101CA00000F07EF942464B4600F02CFB8EA3D3E9B0
:101CB0000023804689463046394600F023FB8CA33A
:101CC000D3E9002300F06AF932463B4600F01AFBE4
:101CD00089A3D3E9002300F061F932463B4600F0C6
:101CE00011FB87A3D3E9002300F058F932463B46A5
:101CF00000F008FB84A3D3E9002300F04FF932463B
:101D00003B4600F0FFFABAF1FF3F02460B4679D09E
:101D10004046494600F044F922462B4600F0F2FACC
:101D2000824E834B4FEACA0A56449A44DAE90023AA
:101D300000F034F922462B4600F030F902460B46FB
:101D4000D6E9000100F02AF9BBF1000F56DB04468A
:101D50000D4645EC104BBDE8F88F002C3FF450AF1A
:101D60002046294622462B4600F01AF904460D4625
:101D700045EC104BBDE8F88F65A3D3E9002310EEC6
:101D8000100A294600F00CF900226A4B00F04AFDC7
:101D900000283FF449AF45EC104BBDE8F88F00F048
:101DA000D3F8654B9E4255EC104B3CDCA3F5502319
:101DB0009E4210EE100A294662DC10EE102A2B46D5
:101DC00000F0EEF800225B4B00F0E8F80022064637
:101DD0000F46204629464FF0804300F0E1F80246C6
:101DE0000B463046394600F0B7FB4FF0000A044678
:101DF0000D461BE748A5D5E90045B9E7044601F1C2
:101E00000045B5E74046494600F0CAF822462B4651
:101E100000F078FA02460B462046294600F0BEF84C
:101E200004460D46A4E7454B9E421DDC10EE100A09
:101E300029460022424B00F0B1F8002206460F4628
:101E4000204629463E4B00F05DFA0022394B00F057
:101E5000A7F802460B463046394600F07DFB4FF0AE
:101E6000020A04460D46E1E62B4610EE102A002039
:101E7000344900F071FB4FF0030A04460D46D5E6E5
:101E800000222C4B00F08AF8002206460F4620461E
:101E90002946284B00F084F802460B463046394666
:101EA00000F05AFB4FF0010A04460D46BEE600BFA3
:101EB000182D4454FB21F93F11DA22E33AAD903F4B
:101EC000EB0D76244B7BA93F513DD0A0660DB13F71
:101ED0006E204CC5CD45B73FFF8300922449C23FD9
:101EE0000D5555555555D53F2F6C6A2C44B4A2BF9E
:101EF0009AFDDE522DDEAD3F6D9A74AFF2B0B33F66
:101F0000711623FEC671BC3FC4EB98999999C93FDD
:101F10009C7500883CE4377E182D4454FB21F9BFA2
:101F2000FFFF0F440000F07FFFFFDB3FF0290008B8
:101F3000D02900080000F03FFFFFF23FFF7F034081
:101F40000000F83F0000F0BF53EC102B23F00043DB
:101F500043EC102B704700BF0020704710EE103A82
:101F600033F0004001D102207047A0F50003B3F127
:101F7000FE4F01D204207047054B421E9A4201D801
:101F800003207047A0F1FF40B0FA80F0400970478D
:101F9000FEFF7F0081F0004102E000BF83F00043BC
:101FA00030B54FEA41044FEA430594EA050F08BFF4
:101FB00090EA020F1FBF54EA000C55EA020C7FEAB8
:101FC000645C7FEA655C00F0E2804FEA5454D4EB35
:101FD0005555B8BF6D420CDD2C4480EA020281EAFF
:101FE000030382EA000083EA010180EA020281EA37
:101FF0000303362D88BF30BD11F0004F4FEA013189
:102000004FF4801C4CEA113102D0404261EB410197
:1020100013F0004F4FEA03334CEA133302D052421D
:1020200063EB430394EA050F00F0A780A4F10104D9
:10203000D5F1200E0DDB02FA0EFC22FA05F2801813
:1020400041F1000103FA0EF2801843FA05F35941F9
:102050000EE0A5F120050EF1200E012A03FA0EFC78
:1020600028BF4CF0020C43FA05F3C01851EBE371A2
:1020700001F0004507D54FF0000EDCF1000C7EEBBF
:1020800000006EEB0101B1F5801F1BD3B1F5001FFD
:102090000CD349085FEA30004FEA3C0C04F101041C
:1020A0004FEA445212F5800F80F09A80BCF1004F45
:1020B00008BF5FEA500C50F1000041EB045141EAC7
:1020C000050130BD5FEA4C0C404141EB010111F4C8
:1020D000801FA4F10104E9D191F0000F04BF014673
:1020E0000020B1FA81F308BF2033A3F10B03B3F151
:1020F00020020CDA0C3208DD02F1140CC2F10C02E1
:1021000001FA0CF021FA02F10CE002F11402D8BF3E
:10211000C2F1200C01FA02F120FA0CFCDCBF41EA0A
:102120000C019040E41AA2BF01EB0451294330BDD9
:102130006FEA04041F3C1CDA0C340EDC04F11404B6
:10214000C4F1200220FA04F001FA02F340EA03008D
:1021500021FA04F345EA030130BDC4F10C04C4F1D3
:10216000200220FA02F001FA04F340EA03002946B3
:1021700030BD21FA04F0294630BD94F0000F83F4FD
:10218000801306BF81F480110134013D4EE77FEAE0
:10219000645C18BF7FEA655C29D094EA050F08BF2C
:1021A00090EA020F05D054EA000C04BF194610460D
:1021B00030BD91EA030F1EBF0021002030BD5FEA51
:1021C000545C05D14000494128BF41F0004130BD79
:1021D00014F580043CBF01F5801130BD01F00045CD
:1021E00045F0FE4141F470014FF0000030BD7FEA40
:1021F000645C1ABF194610467FEA655C1CBF0B463B
:10220000024650EA013406BF52EA033591EA030F51
:1022100041F4002130BD00BF90F0000F04BF002149
:10222000704730B54FF4806404F132044FF000057C
:102230004FF0000150E700BF90F0000F04BF0021F5
:10224000704730B54FF4806404F1320410F000455B
:1022500048BF40424FF000013EE700BF42004FEA56
:10226000E2014FEA31014FEA02701FBF12F07F43D3
:1022700093F07F4F81F06051704792F0000F14BFD0
:1022800093F07F4F704730B54FF4607401F0004514
:1022900021F0004120E700BF50EA010208BF70476B
:1022A00030B54FF000050AE050EA010208BF704760
:1022B00030B511F0004502D5404261EB41014FF4C9
:1022C000806404F132045FEA915C3FF4DCAE4FF0CD
:1022D00003025FEADC0C18BF03325FEADC0C18BFB4
:1022E000033202EBDC02C2F1200300FA03FC20FA05
:1022F00002F001FA03FE40EA0E0021FA02F1144452
:10230000C1E600BF70B54FF0FF0C4CF4E06C1CEA66
:1023100011541DBF1CEA135594EA0C0F95EA0C0FDB
:1023200000F0DEF82C4481EA030621EA4C5123EA4E
:102330004C5350EA013518BF52EA033541F480117D
:1023400043F4801338D0A0FB02CE4FF00005E1FB30
:1023500002E506F00042E0FB03E54FF00006E1FB7A
:1023600003569CF0000F18BF4EF0010EA4F1FF04BD
:10237000B6F5007F64F5407404D25FEA4E0E6D41FD
:1023800046EB060642EAC62141EA55514FEAC5200E
:1023900040EA5E504FEACE2EB4F1FD0C88BFBCF58A
:1023A000E06F1ED8BEF1004F08BF5FEA500E50F13B
:1023B000000041EB045170BD06F0004646EA010101
:1023C00040EA020081EA0301B4EB5C04C2BFD4EB33
:1023D0000C0541EA045170BD41F480114FF0000E2C
:1023E000013C00F3AB8014F1360FDEBF002001F09A
:1023F000004170BDC4F10004203C35DA0C341BDC14
:1024000004F11404C4F1200500FA05F320FA04F0E5
:1024100001FA05F240EA020001F0004221F0004119
:1024200010EBD37021FA04F642EB06015EEA430E8C
:1024300008BF20EAD37070BDC4F10C04C4F12005BC
:1024400000FA04F320FA05F001FA04F240EA02006F
:1024500001F0004110EBD37041F100015EEA430E40
:1024600008BF20EAD37070BDC4F1200500FA05F260
:102470004EEA020E20FA04F301FA05F243EA0203DF
:1024800021FA04F001F0004121FA04F220EA0200EE
:1024900000EBD3705EEA430E08BF20EAD37070BD34
:1024A00094F0000F0FD101F00046400041EB010114
:1024B00011F4801F08BF013CF7D041EA060195F0F6
:1024C000000F18BF704703F00046520043EB0303B0
:1024D00013F4801F08BF013DF7D043EA060370479D
:1024E00094EA0C0F0CEA135518BF95EA0C0F0CD0A8
:1024F00050EA410618BF52EA4306D1D181EA0301EE
:1025000001F000414FF0000070BD50EA410606BFE7
:102510001046194652EA430619D094EA0C0F02D12C
:1025200050EA013613D195EA0C0F05D152EA033671
:102530001CBF104619460AD181EA030101F000418F
:1025400041F0FE4141F470014FF0000070BD41F0D8
:10255000FE4141F4780170BD70B54FF0FF0C4CF4B2
:10256000E06C1CEA11541DBF1CEA135594EA0C0FD1
:1025700095EA0C0F00F0A7F8A4EB050481EA030E1E
:1025800052EA03354FEA013100F088804FEA033305
:102590004FF0805545EA131343EA12634FEA0222D3
:1025A00045EA111545EA10654FEA00260EF0004194
:1025B0009D4208BF964244F1FD0404F5407402D2E6
:1025C0005B084FEA3202B61A65EB03055B084FEA77
:1025D00032024FF480104FF4002CB6EB020E75EB74
:1025E000030E22BFB61A754640EA0C005B084FEA9C
:1025F0003202B6EB020E75EB030E22BFB61A754619
:1026000040EA5C005B084FEA3202B6EB020E75EB63
:10261000030E22BFB61A754640EA9C005B084FEADB
:102620003202B6EB020E75EB030E22BFB61A7546E8
:1026300040EADC0055EA060E18D04FEA051545EAD7
:1026400016754FEA06164FEAC30343EA52734FEA80
:10265000C2025FEA1C1CC0D111F4801F0BD141EAF9
:1026600000014FF000004FF0004CB6E711F4801F5E
:1026700004BF01430020B4F1FD0C88BFBCF5E06F3E
:102680003FF6AFAEB5EB030C04BFB6EB020C5FEA4E
:10269000500C50F1000041EB045170BD0EF0004EA3
:1026A0004EEA113114EB5C04C2BFD4EB0C0541EAD5
:1026B000045170BD41F480114FF0000E013C90E6D2
:1026C00045EA060E8DE60CEA135594EA0C0F08BF96
:1026D00095EA0C0F3FF43BAF94EA0C0F0AD150EA95
:1026E00001347FF434AF95EA0C0F7FF425AF104628
:1026F00019462CE795EA0C0F06D152EA03353FF450
:10270000FDAE1046194622E750EA410618BF52EACC
:1027100043067FF4C5AE50EA41047FF40DAF52EAA0
:1027200043057FF4EBAE12E74FF0FF3C06E000BF3D
:102730004FF0010C02E000BF4FF0010C4DF804CD4A
:102740004FEA410C7FEA6C5C4FEA430C18BF7FEA0A
:102750006C5C1BD001B050EA410C0CBF52EA430C38
:1027600091EA030F02BF90EA020F0020704710F1B8
:10277000000F91EA030F58BF994208BF90422CBF47
:10278000D8176FEAE37040F0010070474FEA410C40
:102790007FEA6C5C02D150EA013C07D14FEA430C5E
:1027A0007FEA6C5CD6D152EA033CD3D05DF8040BCF
:1027B000704700BF8446104662468C461946634601
:1027C00000E000BF01B5FFF7B7FF002848BF10F1D8
:1027D000000F01BD4DF808EDFFF7F4FF0CBF01201D
:1027E00000205DF808FB00BF4DF808EDFFF7EAFF99
:1027F00034BF012000205DF808FB00BF4DF808ED54
:10280000FFF7E0FF94BF012000205DF808FB00BF48
:102810004DF808EDFFF7CEFF94BF012000205DF8D2
:1028200008FB00BF4DF808EDFFF7C4FF34BF0120DF
:1028300000205DF808FB00BF4FEA410212F50012CC
:1028400015D211D56FF47873B3EB625212D94FEAF7
:10285000C12343F0004343EA505311F0004F23FAE1
:1028600002F018BF404270474FF00000704750EA36
:10287000013005D111F0004008BF6FF000407047F3
:102880004FF00000704700BF4FEA4102B2F1E04351
:1028900024BFB3F5001CDCF1FE5C0DD901F0004C47
:1028A0004FEAC0024CEA5070B2F1004F40EB830097
:1028B00008BF20F00100704711F0804F21D113F1C3
:1028C0003872BCBF01F00040704741F480114FEAFC
:1028D0005252C2F11802C2F1200C10FA0CF320FA85
:1028E00002F018BF40F001004FEAC1234FEAD323A2
:1028F00003FA0CFC40EA0C0023FA02F34FEA43030C
:10290000CCE77FEA625307D150EA01331EBF4FF094
:10291000FE4040F44000704701F0004040F0FE40AF
:1029200040F40000704700BF014B1868704700BFBB
:10293000200000204D583A2025642020202020200F
:102940002020202020004D593A20256420202020DE
:1029500020202020202020004D5A3A2025640D0AF6
:102960000042503A202564202020202020202020D2
:1029700020200042543A2025640D0A004F64637AF7
:102980007974793A200D00526F6C6C3A20256420DE
:1029900020200050697463683A2025640D0A007392
:1029A0007464696F2E633A20696E63726561736542
:1029B000204D41585F535452494E475F53495A4541
:1029C0000A0D0000737172746600000000000000C0
:1029D000E2652F227F2B7A3C075C143326A6813CCC
:1029E000BDCBF07A8807703C075C143326A6913C77
:1029F0004FBB610567ACDD3F182D4454FB21E93F17
:102A00009BF681D20B73EF3F182D4454FB21F93F05
:102A1000390000002300000020000000000000003A
:102A20000102030401020304060708090000000074
:102A3000280000200000000000000000000000004E
:102A40000100000000000000000000000000000085
:102A50000000000000000000000000000000000076
:102A60000000000000000000000000000000000066
:102A70000000000000000000000000000000000056
:102A80000000000000000000000000000000000046
:102E6000007A030A000000000000000001020304D1
:082E700006070809010000003B
:0400000508000000EF
:00000001FF
